{
  "abi": [
    {
      "inputs": [
        {
          "internalType": "string",
          "name": "_uri",
          "type": "string"
        }
      ],
      "stateMutability": "nonpayable",
      "type": "constructor"
    },
    {
      "anonymous": false,
      "inputs": [
        {
          "indexed": true,
          "internalType": "address",
          "name": "account",
          "type": "address"
        },
        {
          "indexed": true,
          "internalType": "address",
          "name": "operator",
          "type": "address"
        },
        {
          "indexed": false,
          "internalType": "bool",
          "name": "approved",
          "type": "bool"
        }
      ],
      "name": "ApprovalForAll",
      "type": "event"
    },
    {
      "anonymous": false,
      "inputs": [
        {
          "indexed": false,
          "internalType": "uint256",
          "name": "did",
          "type": "uint256"
        }
      ],
      "name": "DeedClaimed",
      "type": "event"
    },
    {
      "anonymous": false,
      "inputs": [
        {
          "indexed": true,
          "internalType": "address",
          "name": "assetAddress",
          "type": "address"
        },
        {
          "indexed": false,
          "internalType": "enum MultiToken.Category",
          "name": "category",
          "type": "uint8"
        },
        {
          "indexed": false,
          "internalType": "uint256",
          "name": "id",
          "type": "uint256"
        },
        {
          "indexed": false,
          "internalType": "uint256",
          "name": "amount",
          "type": "uint256"
        },
        {
          "indexed": false,
          "internalType": "uint32",
          "name": "duration",
          "type": "uint32"
        },
        {
          "indexed": true,
          "internalType": "uint256",
          "name": "did",
          "type": "uint256"
        }
      ],
      "name": "DeedCreated",
      "type": "event"
    },
    {
      "anonymous": false,
      "inputs": [
        {
          "indexed": false,
          "internalType": "uint256",
          "name": "did",
          "type": "uint256"
        }
      ],
      "name": "DeedRevoked",
      "type": "event"
    },
    {
      "anonymous": false,
      "inputs": [
        {
          "indexed": false,
          "internalType": "uint256",
          "name": "did",
          "type": "uint256"
        },
        {
          "indexed": false,
          "internalType": "bytes32",
          "name": "offer",
          "type": "bytes32"
        }
      ],
      "name": "OfferAccepted",
      "type": "event"
    },
    {
      "anonymous": false,
      "inputs": [
        {
          "indexed": false,
          "internalType": "address",
          "name": "assetAddress",
          "type": "address"
        },
        {
          "indexed": false,
          "internalType": "uint256",
          "name": "amount",
          "type": "uint256"
        },
        {
          "indexed": true,
          "internalType": "address",
          "name": "lender",
          "type": "address"
        },
        {
          "indexed": false,
          "internalType": "uint256",
          "name": "toBePaid",
          "type": "uint256"
        },
        {
          "indexed": true,
          "internalType": "uint256",
          "name": "did",
          "type": "uint256"
        },
        {
          "indexed": false,
          "internalType": "bytes32",
          "name": "offer",
          "type": "bytes32"
        }
      ],
      "name": "OfferMade",
      "type": "event"
    },
    {
      "anonymous": false,
      "inputs": [
        {
          "indexed": false,
          "internalType": "bytes32",
          "name": "offer",
          "type": "bytes32"
        }
      ],
      "name": "OfferRevoked",
      "type": "event"
    },
    {
      "anonymous": false,
      "inputs": [
        {
          "indexed": true,
          "internalType": "address",
          "name": "previousOwner",
          "type": "address"
        },
        {
          "indexed": true,
          "internalType": "address",
          "name": "newOwner",
          "type": "address"
        }
      ],
      "name": "OwnershipTransferred",
      "type": "event"
    },
    {
      "anonymous": false,
      "inputs": [
        {
          "indexed": false,
          "internalType": "uint256",
          "name": "did",
          "type": "uint256"
        },
        {
          "indexed": false,
          "internalType": "bytes32",
          "name": "offer",
          "type": "bytes32"
        }
      ],
      "name": "PaidBack",
      "type": "event"
    },
    {
      "anonymous": false,
      "inputs": [
        {
          "indexed": true,
          "internalType": "address",
          "name": "operator",
          "type": "address"
        },
        {
          "indexed": true,
          "internalType": "address",
          "name": "from",
          "type": "address"
        },
        {
          "indexed": true,
          "internalType": "address",
          "name": "to",
          "type": "address"
        },
        {
          "indexed": false,
          "internalType": "uint256[]",
          "name": "ids",
          "type": "uint256[]"
        },
        {
          "indexed": false,
          "internalType": "uint256[]",
          "name": "values",
          "type": "uint256[]"
        }
      ],
      "name": "TransferBatch",
      "type": "event"
    },
    {
      "anonymous": false,
      "inputs": [
        {
          "indexed": true,
          "internalType": "address",
          "name": "operator",
          "type": "address"
        },
        {
          "indexed": true,
          "internalType": "address",
          "name": "from",
          "type": "address"
        },
        {
          "indexed": true,
          "internalType": "address",
          "name": "to",
          "type": "address"
        },
        {
          "indexed": false,
          "internalType": "uint256",
          "name": "id",
          "type": "uint256"
        },
        {
          "indexed": false,
          "internalType": "uint256",
          "name": "value",
          "type": "uint256"
        }
      ],
      "name": "TransferSingle",
      "type": "event"
    },
    {
      "anonymous": false,
      "inputs": [
        {
          "indexed": false,
          "internalType": "string",
          "name": "value",
          "type": "string"
        },
        {
          "indexed": true,
          "internalType": "uint256",
          "name": "id",
          "type": "uint256"
        }
      ],
      "name": "URI",
      "type": "event"
    },
    {
      "inputs": [],
      "name": "PWN",
      "outputs": [
        {
          "internalType": "address",
          "name": "",
          "type": "address"
        }
      ],
      "stateMutability": "view",
      "type": "function"
    },
    {
      "inputs": [
        {
          "internalType": "uint256",
          "name": "_did",
          "type": "uint256"
        },
        {
          "internalType": "bytes32",
          "name": "_offer",
          "type": "bytes32"
        },
        {
          "internalType": "address",
          "name": "_owner",
          "type": "address"
        }
      ],
      "name": "acceptOffer",
      "outputs": [],
      "stateMutability": "nonpayable",
      "type": "function"
    },
    {
      "inputs": [
        {
          "internalType": "address",
          "name": "account",
          "type": "address"
        },
        {
          "internalType": "uint256",
          "name": "id",
          "type": "uint256"
        }
      ],
      "name": "balanceOf",
      "outputs": [
        {
          "internalType": "uint256",
          "name": "",
          "type": "uint256"
        }
      ],
      "stateMutability": "view",
      "type": "function"
    },
    {
      "inputs": [
        {
          "internalType": "address[]",
          "name": "accounts",
          "type": "address[]"
        },
        {
          "internalType": "uint256[]",
          "name": "ids",
          "type": "uint256[]"
        }
      ],
      "name": "balanceOfBatch",
      "outputs": [
        {
          "internalType": "uint256[]",
          "name": "",
          "type": "uint256[]"
        }
      ],
      "stateMutability": "view",
      "type": "function"
    },
    {
      "inputs": [
        {
          "internalType": "uint256",
          "name": "_did",
          "type": "uint256"
        },
        {
          "internalType": "address",
          "name": "_owner",
          "type": "address"
        }
      ],
      "name": "burn",
      "outputs": [],
      "stateMutability": "nonpayable",
      "type": "function"
    },
    {
      "inputs": [
        {
          "internalType": "uint256",
          "name": "_did",
          "type": "uint256"
        },
        {
          "internalType": "address",
          "name": "_owner",
          "type": "address"
        }
      ],
      "name": "claim",
      "outputs": [],
      "stateMutability": "nonpayable",
      "type": "function"
    },
    {
      "inputs": [
        {
          "internalType": "address",
          "name": "_assetAddress",
          "type": "address"
        },
        {
          "internalType": "enum MultiToken.Category",
          "name": "_assetCategory",
          "type": "uint8"
        },
        {
          "internalType": "uint32",
          "name": "_duration",
          "type": "uint32"
        },
        {
          "internalType": "uint256",
          "name": "_assetId",
          "type": "uint256"
        },
        {
          "internalType": "uint256",
          "name": "_assetAmount",
          "type": "uint256"
        },
        {
          "internalType": "address",
          "name": "_owner",
          "type": "address"
        }
      ],
      "name": "create",
      "outputs": [
        {
          "internalType": "uint256",
          "name": "",
          "type": "uint256"
        }
      ],
      "stateMutability": "nonpayable",
      "type": "function"
    },
    {
      "inputs": [
        {
          "internalType": "uint256",
          "name": "",
          "type": "uint256"
        }
      ],
      "name": "deeds",
      "outputs": [
        {
          "internalType": "uint8",
          "name": "status",
          "type": "uint8"
        },
        {
          "internalType": "address",
          "name": "borrower",
          "type": "address"
        },
        {
          "internalType": "uint32",
          "name": "duration",
          "type": "uint32"
        },
        {
          "internalType": "uint40",
          "name": "expiration",
          "type": "uint40"
        },
        {
          "components": [
            {
              "internalType": "address",
              "name": "assetAddress",
              "type": "address"
            },
            {
              "internalType": "enum MultiToken.Category",
              "name": "category",
              "type": "uint8"
            },
            {
              "internalType": "uint256",
              "name": "amount",
              "type": "uint256"
            },
            {
              "internalType": "uint256",
              "name": "id",
              "type": "uint256"
            }
          ],
          "internalType": "struct MultiToken.Asset",
          "name": "collateral",
          "type": "tuple"
        },
        {
          "internalType": "bytes32",
          "name": "acceptedOffer",
          "type": "bytes32"
        }
      ],
      "stateMutability": "view",
      "type": "function"
    },
    {
      "inputs": [
        {
          "internalType": "uint256",
          "name": "_did",
          "type": "uint256"
        }
      ],
      "name": "getAcceptedOffer",
      "outputs": [
        {
          "internalType": "bytes32",
          "name": "",
          "type": "bytes32"
        }
      ],
      "stateMutability": "view",
      "type": "function"
    },
    {
      "inputs": [
        {
          "internalType": "uint256",
          "name": "_did",
          "type": "uint256"
        }
      ],
      "name": "getBorrower",
      "outputs": [
        {
          "internalType": "address",
          "name": "",
          "type": "address"
        }
      ],
      "stateMutability": "view",
      "type": "function"
    },
    {
      "inputs": [
        {
          "internalType": "uint256",
          "name": "_did",
          "type": "uint256"
        }
      ],
      "name": "getDeedCollateral",
      "outputs": [
        {
          "components": [
            {
              "internalType": "address",
              "name": "assetAddress",
              "type": "address"
            },
            {
              "internalType": "enum MultiToken.Category",
              "name": "category",
              "type": "uint8"
            },
            {
              "internalType": "uint256",
              "name": "amount",
              "type": "uint256"
            },
            {
              "internalType": "uint256",
              "name": "id",
              "type": "uint256"
            }
          ],
          "internalType": "struct MultiToken.Asset",
          "name": "",
          "type": "tuple"
        }
      ],
      "stateMutability": "view",
      "type": "function"
    },
    {
      "inputs": [
        {
          "internalType": "bytes32",
          "name": "_offer",
          "type": "bytes32"
        }
      ],
      "name": "getDeedID",
      "outputs": [
        {
          "internalType": "uint256",
          "name": "",
          "type": "uint256"
        }
      ],
      "stateMutability": "view",
      "type": "function"
    },
    {
      "inputs": [
        {
          "internalType": "uint256",
          "name": "_did",
          "type": "uint256"
        }
      ],
      "name": "getDeedStatus",
      "outputs": [
        {
          "internalType": "uint8",
          "name": "",
          "type": "uint8"
        }
      ],
      "stateMutability": "view",
      "type": "function"
    },
    {
      "inputs": [
        {
          "internalType": "uint256",
          "name": "_did",
          "type": "uint256"
        }
      ],
      "name": "getDuration",
      "outputs": [
        {
          "internalType": "uint32",
          "name": "",
          "type": "uint32"
        }
      ],
      "stateMutability": "view",
      "type": "function"
    },
    {
      "inputs": [
        {
          "internalType": "uint256",
          "name": "_did",
          "type": "uint256"
        }
      ],
      "name": "getExpiration",
      "outputs": [
        {
          "internalType": "uint40",
          "name": "",
          "type": "uint40"
        }
      ],
      "stateMutability": "view",
      "type": "function"
    },
    {
      "inputs": [
        {
          "internalType": "bytes32",
          "name": "_offer",
          "type": "bytes32"
        }
      ],
      "name": "getLender",
      "outputs": [
        {
          "internalType": "address",
          "name": "",
          "type": "address"
        }
      ],
      "stateMutability": "view",
      "type": "function"
    },
    {
      "inputs": [
        {
          "internalType": "bytes32",
          "name": "_offer",
          "type": "bytes32"
        }
      ],
      "name": "getOfferLoan",
      "outputs": [
        {
          "components": [
            {
              "internalType": "address",
              "name": "assetAddress",
              "type": "address"
            },
            {
              "internalType": "enum MultiToken.Category",
              "name": "category",
              "type": "uint8"
            },
            {
              "internalType": "uint256",
              "name": "amount",
              "type": "uint256"
            },
            {
              "internalType": "uint256",
              "name": "id",
              "type": "uint256"
            }
          ],
          "internalType": "struct MultiToken.Asset",
          "name": "",
          "type": "tuple"
        }
      ],
      "stateMutability": "view",
      "type": "function"
    },
    {
      "inputs": [
        {
          "internalType": "uint256",
          "name": "_did",
          "type": "uint256"
        }
      ],
      "name": "getOffers",
      "outputs": [
        {
          "internalType": "bytes32[]",
          "name": "",
          "type": "bytes32[]"
        }
      ],
      "stateMutability": "view",
      "type": "function"
    },
    {
      "inputs": [],
      "name": "id",
      "outputs": [
        {
          "internalType": "uint256",
          "name": "",
          "type": "uint256"
        }
      ],
      "stateMutability": "view",
      "type": "function"
    },
    {
      "inputs": [
        {
          "internalType": "address",
          "name": "account",
          "type": "address"
        },
        {
          "internalType": "address",
          "name": "operator",
          "type": "address"
        }
      ],
      "name": "isApprovedForAll",
      "outputs": [
        {
          "internalType": "bool",
          "name": "",
          "type": "bool"
        }
      ],
      "stateMutability": "view",
      "type": "function"
    },
    {
      "inputs": [
        {
          "internalType": "address",
          "name": "_assetAddress",
          "type": "address"
        },
        {
          "internalType": "uint256",
          "name": "_assetAmount",
          "type": "uint256"
        },
        {
          "internalType": "address",
          "name": "_lender",
          "type": "address"
        },
        {
          "internalType": "uint256",
          "name": "_did",
          "type": "uint256"
        },
        {
          "internalType": "uint256",
          "name": "_toBePaid",
          "type": "uint256"
        }
      ],
      "name": "makeOffer",
      "outputs": [
        {
          "internalType": "bytes32",
          "name": "",
          "type": "bytes32"
        }
      ],
      "stateMutability": "nonpayable",
      "type": "function"
    },
    {
      "inputs": [
        {
          "internalType": "bytes32",
          "name": "",
          "type": "bytes32"
        }
      ],
      "name": "offers",
      "outputs": [
        {
          "internalType": "uint256",
          "name": "did",
          "type": "uint256"
        },
        {
          "internalType": "uint256",
          "name": "toBePaid",
          "type": "uint256"
        },
        {
          "internalType": "address",
          "name": "lender",
          "type": "address"
        },
        {
          "components": [
            {
              "internalType": "address",
              "name": "assetAddress",
              "type": "address"
            },
            {
              "internalType": "enum MultiToken.Category",
              "name": "category",
              "type": "uint8"
            },
            {
              "internalType": "uint256",
              "name": "amount",
              "type": "uint256"
            },
            {
              "internalType": "uint256",
              "name": "id",
              "type": "uint256"
            }
          ],
          "internalType": "struct MultiToken.Asset",
          "name": "loan",
          "type": "tuple"
        }
      ],
      "stateMutability": "view",
      "type": "function"
    },
    {
      "inputs": [],
      "name": "owner",
      "outputs": [
        {
          "internalType": "address",
          "name": "",
          "type": "address"
        }
      ],
      "stateMutability": "view",
      "type": "function"
    },
    {
      "inputs": [],
      "name": "renounceOwnership",
      "outputs": [],
      "stateMutability": "nonpayable",
      "type": "function"
    },
    {
      "inputs": [
        {
          "internalType": "uint256",
          "name": "_did",
          "type": "uint256"
        }
      ],
      "name": "repayLoan",
      "outputs": [],
      "stateMutability": "nonpayable",
      "type": "function"
    },
    {
      "inputs": [
        {
          "internalType": "uint256",
          "name": "_did",
          "type": "uint256"
        },
        {
          "internalType": "address",
          "name": "_owner",
          "type": "address"
        }
      ],
      "name": "revoke",
      "outputs": [],
      "stateMutability": "nonpayable",
      "type": "function"
    },
    {
      "inputs": [
        {
          "internalType": "bytes32",
          "name": "_offer",
          "type": "bytes32"
        },
        {
          "internalType": "address",
          "name": "_lender",
          "type": "address"
        }
      ],
      "name": "revokeOffer",
      "outputs": [],
      "stateMutability": "nonpayable",
      "type": "function"
    },
    {
      "inputs": [
        {
          "internalType": "address",
          "name": "from",
          "type": "address"
        },
        {
          "internalType": "address",
          "name": "to",
          "type": "address"
        },
        {
          "internalType": "uint256[]",
          "name": "ids",
          "type": "uint256[]"
        },
        {
          "internalType": "uint256[]",
          "name": "amounts",
          "type": "uint256[]"
        },
        {
          "internalType": "bytes",
          "name": "data",
          "type": "bytes"
        }
      ],
      "name": "safeBatchTransferFrom",
      "outputs": [],
      "stateMutability": "nonpayable",
      "type": "function"
    },
    {
      "inputs": [
        {
          "internalType": "address",
          "name": "from",
          "type": "address"
        },
        {
          "internalType": "address",
          "name": "to",
          "type": "address"
        },
        {
          "internalType": "uint256",
          "name": "id",
          "type": "uint256"
        },
        {
          "internalType": "uint256",
          "name": "amount",
          "type": "uint256"
        },
        {
          "internalType": "bytes",
          "name": "data",
          "type": "bytes"
        }
      ],
      "name": "safeTransferFrom",
      "outputs": [],
      "stateMutability": "nonpayable",
      "type": "function"
    },
    {
      "inputs": [
        {
          "internalType": "address",
          "name": "operator",
          "type": "address"
        },
        {
          "internalType": "bool",
          "name": "approved",
          "type": "bool"
        }
      ],
      "name": "setApprovalForAll",
      "outputs": [],
      "stateMutability": "nonpayable",
      "type": "function"
    },
    {
      "inputs": [
        {
          "internalType": "address",
          "name": "_address",
          "type": "address"
        }
      ],
      "name": "setPWN",
      "outputs": [],
      "stateMutability": "nonpayable",
      "type": "function"
    },
    {
      "inputs": [
        {
          "internalType": "string",
          "name": "_newUri",
          "type": "string"
        }
      ],
      "name": "setUri",
      "outputs": [],
      "stateMutability": "nonpayable",
      "type": "function"
    },
    {
      "inputs": [
        {
          "internalType": "bytes4",
          "name": "interfaceId",
          "type": "bytes4"
        }
      ],
      "name": "supportsInterface",
      "outputs": [
        {
          "internalType": "bool",
          "name": "",
          "type": "bool"
        }
      ],
      "stateMutability": "view",
      "type": "function"
    },
    {
      "inputs": [
        {
          "internalType": "bytes32",
          "name": "_offer",
          "type": "bytes32"
        }
      ],
      "name": "toBePaid",
      "outputs": [
        {
          "internalType": "uint256",
          "name": "",
          "type": "uint256"
        }
      ],
      "stateMutability": "view",
      "type": "function"
    },
    {
      "inputs": [
        {
          "internalType": "address",
          "name": "newOwner",
          "type": "address"
        }
      ],
      "name": "transferOwnership",
      "outputs": [],
      "stateMutability": "nonpayable",
      "type": "function"
    },
    {
      "inputs": [
        {
          "internalType": "uint256",
          "name": "",
          "type": "uint256"
        }
      ],
      "name": "uri",
      "outputs": [
        {
          "internalType": "string",
          "name": "",
          "type": "string"
        }
      ],
      "stateMutability": "view",
      "type": "function"
    }
  ],
  "bytecode": "60806040523480156200001157600080fd5b506040516200322e3803806200322e833981016040819052620000349162000164565b80620000408162000053565b506200004c336200006c565b506200028d565b805162000068906002906020840190620000be565b5050565b600380546001600160a01b038381166001600160a01b0319831681179093556040519116919082907f8be0079c531659141344cd1fd0a4f28419497f9722a3daafe3b4186f6b6457e090600090a35050565b828054620000cc906200023a565b90600052602060002090601f016020900481019282620000f057600085556200013b565b82601f106200010b57805160ff19168380011785556200013b565b828001600101855582156200013b579182015b828111156200013b5782518255916020019190600101906200011e565b50620001499291506200014d565b5090565b5b808211156200014957600081556001016200014e565b6000602080838503121562000177578182fd5b82516001600160401b03808211156200018e578384fd5b818501915085601f830112620001a2578384fd5b815181811115620001b757620001b762000277565b604051601f8201601f19908116603f01168101908382118183101715620001e257620001e262000277565b816040528281528886848701011115620001fa578687fd5b8693505b828410156200021d5784840186015181850187015292850192620001fe565b828411156200022e57868684830101525b98975050505050505050565b600181811c908216806200024f57607f821691505b602082108114156200027157634e487b7160e01b600052602260045260246000fd5b50919050565b634e487b7160e01b600052604160045260246000fd5b612f91806200029d6000396000f3fe608060405234801561001057600080fd5b506004361061021b5760003560e01c80638500d91911610125578063d05197c1116100ad578063f1898a951161007c578063f1898a95146105d3578063f242432a146105f8578063f2fde38b1461060b578063fc09de891461061e578063fcd3533c1461063157600080fd5b8063d05197c114610551578063ddd5e1b214610564578063dfa49e6f14610577578063e985e9c51461059757600080fd5b80639b642de1116100f45780639b642de1146104cb578063a05b775f146104de578063a22cb46514610522578063ab7b1c8914610535578063af640d0f1461054857600080fd5b80638500d919146104375780638bb126a7146104655780638c26ba0c146104a75780638da5cb5b146104ba57600080fd5b8063474d3ff0116101a8578063691da99011610177578063691da990146103b657806369bdc155146103d9578063715018a6146103f95780637f4285f114610401578063805094c71461042457600080fd5b8063474d3ff01461034d5780634e1273f414610370578063600ca3d21461039057806363bbf33a146103a357600080fd5b806312dbc1d8116101ef57806312dbc1d8146102cd5780631387c2b5146102ed57806318edf5641461030057806320d154da146103255780632eb2c2d61461033a57600080fd5b8062fdd58e1461022057806301ffc9a7146102465780630e89341c146102695780631218239f14610289575b600080fd5b61023361022e366004612712565b610644565b6040519081526020015b60405180910390f35b61025961025436600461288d565b6106de565b604051901515815260200161023d565b61027c610277366004612853565b61072e565b60405161023d9190612b72565b6102b5610297366004612853565b6000908152600860205260409020600201546001600160a01b031690565b6040516001600160a01b03909116815260200161023d565b6102e06102db366004612853565b6107c2565b60405161023d9190612d05565b6102336102fb36600461273b565b610885565b61031361030e366004612853565b610a2c565b60405161023d96959493929190612d3d565b61033861033336600461286b565b610af8565b005b61033861034836600461255b565b610c06565b61036061035b366004612853565b610c9d565b60405161023d9493929190612d13565b61038361037e366004612788565b610d4c565b60405161023d9190612b0b565b61033861039e366004612913565b610eae565b6102336103b136600461269e565b611021565b6102336103c4366004612853565b60009081526007602052604090206004015490565b6102336103e7366004612853565b60009081526008602052604090205490565b61033861117c565b61023361040f366004612853565b60009081526008602052604090206001015490565b6004546102b5906001600160a01b031681565b6102b5610445366004612853565b60009081526007602052604090205461010090046001600160a01b031690565b610492610473366004612853565b600090815260076020526040902054600160a81b900463ffffffff1690565b60405163ffffffff909116815260200161023d565b6103386104b536600461250f565b6111b2565b6003546001600160a01b03166102b5565b6103386104d93660046128c5565b6111fe565b61050c6104ec366004612853565b600090815260076020526040902054600160c81b900464ffffffffff1690565b60405164ffffffffff909116815260200161023d565b610338610530366004612664565b611234565b610338610543366004612853565b611243565b61023360055481565b6102e061055f366004612853565b61133c565b61033861057236600461286b565b6113c2565b61058a610585366004612853565b6114e9565b60405161023d9190612ac7565b6102596105a5366004612529565b6001600160a01b03918216600090815260016020908152604080832093909416825291909152205460ff1690565b6105e66105e1366004612853565b61154d565b60405160ff909116815260200161023d565b610338610606366004612601565b6115da565b61033861061936600461250f565b611661565b61033861062c36600461286b565b6116f9565b61033861063f36600461286b565b61188f565b60006001600160a01b0383166106b55760405162461bcd60e51b815260206004820152602b60248201527f455243313135353a2062616c616e636520717565727920666f7220746865207a60448201526a65726f206164647265737360a81b60648201526084015b60405180910390fd5b506000818152602081815260408083206001600160a01b03861684529091529020545b92915050565b60006001600160e01b03198216636cdb3d1360e11b148061070f57506001600160e01b031982166303a24d0760e21b145b806106d857506301ffc9a760e01b6001600160e01b03198316146106d8565b60606002805461073d90612df4565b80601f016020809104026020016040519081016040528092919081815260200182805461076990612df4565b80156107b65780601f1061078b576101008083540402835291602001916107b6565b820191906000526020600020905b81548152906001019060200180831161079957829003601f168201915b50505050509050919050565b6107ee604080516080810190915260008082526020820190815260200160008152602001600081525090565b60008281526007602090815260409182902082516080810190935260010180546001600160a01b03811684529091830190600160a01b900460ff16600281111561084857634e487b7160e01b600052602160045260246000fd5b600281111561086757634e487b7160e01b600052602160045260246000fd5b81526001820154602082015260029091015460409091015292915050565b6004546000906001600160a01b031633146108b25760405162461bcd60e51b81526004016106ac90612bcd565b6108bb8361154d565b60ff1660011461090d5760405162461bcd60e51b815260206004820152601960248201527f44656564206e6f7420616363657074696e67206f66666572730000000000000060448201526064016106ac565b6006805460408051606088901b6bffffffffffffffffffffffff19166020808301919091526034808301859052835180840390910181526054909201909252805191012091600061095d83612e5c565b909155505060008181526008602090815260408083206003810180546001600160a01b038d81166001600160a01b03199283168117909355600484018d905560018085018b9055600285018054928e169290931682179092558a84558a875260078652848720600501805492830181558752958590200186905582519081529283018a9052908201869052606082018490529186917fac3dc350fd8fe7a7b7c5b88bf344a2df332c672b59d6dd43a0cd1794a7270e399060800160405180910390a35090505b95945050505050565b60076020908152600091825260409182902080548351608081019094526001820180546001600160a01b03808216875260ff80851697610100860490921696600160a81b860463ffffffff1696600160c81b90960464ffffffffff169594929390840191600160a01b909104166002811115610ab857634e487b7160e01b600052602160045260246000fd5b6002811115610ad757634e487b7160e01b600052602160045260246000fd5b81526001820154602082015260029091015460409091015260049091015486565b6004546001600160a01b03163314610b225760405162461bcd60e51b81526004016106ac90612bcd565b610b2c8183610644565b600114610b4b5760405162461bcd60e51b81526004016106ac90612cc0565b610b548261154d565b60ff16600114610bb25760405162461bcd60e51b815260206004820152602360248201527f446565642063616e2774206265207265766f6b6564206174207468697320737460448201526261676560e81b60648201526084016106ac565b60008281526007602052604090819020805460ff19169055517f5e7d27d7357da2bce071cb0105a9736b8264b9c259f97215d7e2f7b502881dd890610bfa9084815260200190565b60405180910390a15050565b6001600160a01b038516331480610c225750610c2285336105a5565b610c895760405162461bcd60e51b815260206004820152603260248201527f455243313135353a207472616e736665722063616c6c6572206973206e6f74206044820152711bdddb995c881b9bdc88185c1c1c9bdd995960721b60648201526084016106ac565b610c9685858585856119db565b5050505050565b600860209081526000918252604091829020805460018201546002808401548651608081019097526003850180546001600160a01b038082168a5295989497959092169594909290840191600160a01b900460ff1690811115610d1057634e487b7160e01b600052602160045260246000fd5b6002811115610d2f57634e487b7160e01b600052602160045260246000fd5b815260200160018201548152602001600282015481525050905084565b60608151835114610db15760405162461bcd60e51b815260206004820152602960248201527f455243313135353a206163636f756e747320616e6420696473206c656e677468604482015268040dad2e6dac2e8c6d60bb1b60648201526084016106ac565b6000835167ffffffffffffffff811115610ddb57634e487b7160e01b600052604160045260246000fd5b604051908082528060200260200182016040528015610e04578160200160208202803683370190505b50905060005b8451811015610ea657610e6b858281518110610e3657634e487b7160e01b600052603260045260246000fd5b6020026020010151858381518110610e5e57634e487b7160e01b600052603260045260246000fd5b6020026020010151610644565b828281518110610e8b57634e487b7160e01b600052603260045260246000fd5b6020908102919091010152610e9f81612e5c565b9050610e0a565b509392505050565b6004546001600160a01b03163314610ed85760405162461bcd60e51b81526004016106ac90612bcd565b610ee28184610644565b600114610f015760405162461bcd60e51b81526004016106ac90612cc0565b610f0a8361154d565b60ff16600114610f5c5760405162461bcd60e51b815260206004820152601d60248201527f446565642063616e277420616363657074206d6f7265206f666665727300000060448201526064016106ac565b60008381526007602052604090208054610100600160a81b0319166101006001600160a01b0384160217808255610fa090600160a81b900463ffffffff1642612dcb565b815464ffffffffff91909116600160c81b0264ffffffffff60c81b1990911617815560048101839055610fd7600582016000612349565b805460ff1916600217815560408051858152602081018590527f44966d4e56d70077531879040894aa85057c3ba7618964bbe117ac526a5bc94b910160405180910390a150505050565b6004546000906001600160a01b0316331461104e5760405162461bcd60e51b81526004016106ac90612bcd565b6005805490600061105e83612e5c565b90915550506005546000908152600760205260409020805463ffffffff60a81b1916600160a81b63ffffffff8816021781556001810180546001600160a01b031981166001600160a01b038b1690811783558992916001600160a81b03191617600160a01b8360028111156110e357634e487b7160e01b600052602160045260246000fd5b02179055506003810185905560028101849055600554604080516020810190915260008152611116918591600190611bd4565b805460ff191660011781556005546040516001600160a01b038a16907f2ed4c7b7768c6b7a36a2a860b72dce02efdff532675591e9ce525280d7aaedb690611165908b908a908a908d90612b43565b60405180910390a350506005549695505050505050565b6003546001600160a01b031633146111a65760405162461bcd60e51b81526004016106ac90612c8b565b6111b06000611cde565b565b6003546001600160a01b031633146111dc5760405162461bcd60e51b81526004016106ac90612c8b565b600480546001600160a01b0319166001600160a01b0392909216919091179055565b6003546001600160a01b031633146112285760405162461bcd60e51b81526004016106ac90612c8b565b61123181611d30565b50565b61123f338383611d43565b5050565b6004546001600160a01b0316331461126d5760405162461bcd60e51b81526004016106ac90612bcd565b6112768161154d565b60ff166002146112e45760405162461bcd60e51b815260206004820152603360248201527f4465656420646f65736e2774206861766520616e206163636570746564206f6660448201527266657220746f2062652070616964206261636b60681b60648201526084016106ac565b600081815260076020908152604091829020805460ff19166003178155600401548251848152918201527ff77abe96fbd2868e9ea14580a47e854c89deb2b4d4b8cc87989bdf65c69639c7910160405180910390a150565b611368604080516080810190915260008082526020820190815260200160008152602001600081525090565b60008281526008602090815260409182902082516080810190935260030180546001600160a01b03811684529091830190600160a01b900460ff16600281111561084857634e487b7160e01b600052602160045260246000fd5b6004546001600160a01b031633146113ec5760405162461bcd60e51b81526004016106ac90612bcd565b6113f68183610644565b6001146114455760405162461bcd60e51b815260206004820152601c60248201527f43616c6c6572206973206e6f74207468652064656564206f776e65720000000060448201526064016106ac565b60036114508361154d565b60ff1610156114a15760405162461bcd60e51b815260206004820152601960248201527f446565642063616e277420626520636c61696d6564207965740000000000000060448201526064016106ac565b60008281526007602052604090819020805460ff19169055517fa15f537ebc49d6f6d5217f43d2c5d2b830069397bed363fdc1d811814148ec6d90610bfa9084815260200190565b6000818152600760209081526040918290206005018054835181840281018401909452808452606093928301828280156107b657602002820191906000526020600020905b81548152602001906001019080831161152e5750505050509050919050565b600081815260076020526040812054600160c81b900464ffffffffff1615801590611594575060008281526007602052604090205442600160c81b90910464ffffffffff16105b80156115b2575060008281526007602052604090205460ff16600314155b156115bf57506004919050565b5060009081526007602052604090205460ff1690565b919050565b6001600160a01b0385163314806115f657506115f685336105a5565b6116545760405162461bcd60e51b815260206004820152602960248201527f455243313135353a2063616c6c6572206973206e6f74206f776e6572206e6f7260448201526808185c1c1c9bdd995960ba1b60648201526084016106ac565b610c968585858585611e24565b6003546001600160a01b0316331461168b5760405162461bcd60e51b81526004016106ac90612c8b565b6001600160a01b0381166116f05760405162461bcd60e51b815260206004820152602660248201527f4f776e61626c653a206e6577206f776e657220697320746865207a65726f206160448201526564647265737360d01b60648201526084016106ac565b61123181611cde565b6004546001600160a01b031633146117235760405162461bcd60e51b81526004016106ac90612bcd565b6000828152600860205260409020600201546001600160a01b0382811691161461179b5760405162461bcd60e51b8152602060048201526024808201527f546869732061646472657373206469646e27742063726561746520746865206f604482015263333332b960e11b60648201526084016106ac565b6000828152600860205260409020546117b39061154d565b60ff166001146118145760405162461bcd60e51b815260206004820152602660248201527f43616e206f6e6c792072656d6f7665206f66666572732066726f6d206f70656e60448201526520446565647360d01b60648201526084016106ac565b600082815260086020526040808220828155600181018390556002810180546001600160a01b03191690556003810180546001600160a81b03191690556004810183905560050191909155517fc0885ade686cf1ca700832b5b7a2f2b0759e5a483174588f940e3ac048a8f8d090610bfa9084815260200190565b6004546001600160a01b031633146118b95760405162461bcd60e51b81526004016106ac90612bcd565b6118c38183610644565b6001146119125760405162461bcd60e51b815260206004820152601c60248201527f43616c6c6572206973206e6f74207468652064656564206f776e65720000000060448201526064016106ac565b60008281526007602052604090205460ff161561197c5760405162461bcd60e51b815260206004820152602260248201527f446565642063616e2774206265206275726e6564206174207468697320737461604482015261676560f01b60648201526084016106ac565b600082815260076020526040812080546001600160f01b03191681556001810180546001600160a81b0319169055600281018290556003810182905560048101829055906119cd6005830182612349565b505061123f81836001611f41565b8151835114611a3d5760405162461bcd60e51b815260206004820152602860248201527f455243313135353a2069647320616e6420616d6f756e7473206c656e677468206044820152670dad2e6dac2e8c6d60c31b60648201526084016106ac565b6001600160a01b038416611a635760405162461bcd60e51b81526004016106ac90612bfc565b3360005b8451811015611b66576000858281518110611a9257634e487b7160e01b600052603260045260246000fd5b602002602001015190506000858381518110611abe57634e487b7160e01b600052603260045260246000fd5b602090810291909101810151600084815280835260408082206001600160a01b038e168352909352919091205490915081811015611b0e5760405162461bcd60e51b81526004016106ac90612c41565b6000838152602081815260408083206001600160a01b038e8116855292528083208585039055908b16825281208054849290611b4b908490612db3565b9250508190555050505080611b5f90612e5c565b9050611a67565b50846001600160a01b0316866001600160a01b0316826001600160a01b03167f4a39dc06d4c0dbc64b70af90fd698a233a518aa5d07e595d983b8c0526c8f7fb8787604051611bb6929190612b1e565b60405180910390a4611bcc8187878787876120bb565b505050505050565b6001600160a01b038416611c345760405162461bcd60e51b815260206004820152602160248201527f455243313135353a206d696e7420746f20746865207a65726f206164647265736044820152607360f81b60648201526084016106ac565b33611c4e81600087611c4588612226565b610c9688612226565b6000848152602081815260408083206001600160a01b038916845290915281208054859290611c7e908490612db3565b909155505060408051858152602081018590526001600160a01b0380881692600092918516917fc3d58168c5ae7397731d063d5bbf3d657854427343f4c083240f7aacaa2d0f62910160405180910390a4610c968160008787878761227f565b600380546001600160a01b038381166001600160a01b0319831681179093556040519116919082907f8be0079c531659141344cd1fd0a4f28419497f9722a3daafe3b4186f6b6457e090600090a35050565b805161123f906002906020840190612367565b816001600160a01b0316836001600160a01b03161415611db75760405162461bcd60e51b815260206004820152602960248201527f455243313135353a2073657474696e6720617070726f76616c20737461747573604482015268103337b91039b2b63360b91b60648201526084016106ac565b6001600160a01b03838116600081815260016020908152604080832094871680845294825291829020805460ff191686151590811790915591519182527f17307eab39ab6107e8899845ad3d59bd9653f200f220920489ca2b5937696c31910160405180910390a3505050565b6001600160a01b038416611e4a5760405162461bcd60e51b81526004016106ac90612bfc565b33611e5a818787611c4588612226565b6000848152602081815260408083206001600160a01b038a16845290915290205483811015611e9b5760405162461bcd60e51b81526004016106ac90612c41565b6000858152602081815260408083206001600160a01b038b8116855292528083208785039055908816825281208054869290611ed8908490612db3565b909155505060408051868152602081018690526001600160a01b03808916928a821692918616917fc3d58168c5ae7397731d063d5bbf3d657854427343f4c083240f7aacaa2d0f62910160405180910390a4611f3882888888888861227f565b50505050505050565b6001600160a01b038316611fa35760405162461bcd60e51b815260206004820152602360248201527f455243313135353a206275726e2066726f6d20746865207a65726f206164647260448201526265737360e81b60648201526084016106ac565b33611fd381856000611fb487612226565b611fbd87612226565b5050604080516020810190915260009052505050565b6000838152602081815260408083206001600160a01b0388168452909152902054828110156120505760405162461bcd60e51b8152602060048201526024808201527f455243313135353a206275726e20616d6f756e7420657863656564732062616c604482015263616e636560e01b60648201526084016106ac565b6000848152602081815260408083206001600160a01b03898116808652918452828520888703905582518981529384018890529092908616917fc3d58168c5ae7397731d063d5bbf3d657854427343f4c083240f7aacaa2d0f62910160405180910390a45050505050565b6001600160a01b0384163b15611bcc5760405163bc197c8160e01b81526001600160a01b0385169063bc197c81906120ff9089908990889088908890600401612a24565b602060405180830381600087803b15801561211957600080fd5b505af1925050508015612149575060408051601f3d908101601f19168201909252612146918101906128a9565b60015b6121f657612155612ea3565b806308c379a0141561218f575061216a612ebb565b806121755750612191565b8060405162461bcd60e51b81526004016106ac9190612b72565b505b60405162461bcd60e51b815260206004820152603460248201527f455243313135353a207472616e7366657220746f206e6f6e20455243313135356044820152732932b1b2b4bb32b91034b6b83632b6b2b73a32b960611b60648201526084016106ac565b6001600160e01b0319811663bc197c8160e01b14611f385760405162461bcd60e51b81526004016106ac90612b85565b6040805160018082528183019092526060916000919060208083019080368337019050509050828160008151811061226e57634e487b7160e01b600052603260045260246000fd5b602090810291909101015292915050565b6001600160a01b0384163b15611bcc5760405163f23a6e6160e01b81526001600160a01b0385169063f23a6e61906122c39089908990889088908890600401612a82565b602060405180830381600087803b1580156122dd57600080fd5b505af192505050801561230d575060408051601f3d908101601f1916820190925261230a918101906128a9565b60015b61231957612155612ea3565b6001600160e01b0319811663f23a6e6160e01b14611f385760405162461bcd60e51b81526004016106ac90612b85565b508054600082559060005260206000209081019061123191906123eb565b82805461237390612df4565b90600052602060002090601f01602090048101928261239557600085556123db565b82601f106123ae57805160ff19168380011785556123db565b828001600101855582156123db579182015b828111156123db5782518255916020019190600101906123c0565b506123e79291506123eb565b5090565b5b808211156123e757600081556001016123ec565b600067ffffffffffffffff83111561241a5761241a612e8d565b604051612431601f8501601f191660200182612e2f565b80915083815284848401111561244657600080fd5b83836020830137600060208583010152509392505050565b80356001600160a01b03811681146115d557600080fd5b600082601f830112612485578081fd5b8135602061249282612d8f565b60405161249f8282612e2f565b8381528281019150858301600585901b870184018810156124be578586fd5b855b858110156124dc578135845292840192908401906001016124c0565b5090979650505050505050565b600082601f8301126124f9578081fd5b61250883833560208501612400565b9392505050565b600060208284031215612520578081fd5b6125088261245e565b6000806040838503121561253b578081fd5b6125448361245e565b91506125526020840161245e565b90509250929050565b600080600080600060a08688031215612572578081fd5b61257b8661245e565b94506125896020870161245e565b9350604086013567ffffffffffffffff808211156125a5578283fd5b6125b189838a01612475565b945060608801359150808211156125c6578283fd5b6125d289838a01612475565b935060808801359150808211156125e7578283fd5b506125f4888289016124e9565b9150509295509295909350565b600080600080600060a08688031215612618578081fd5b6126218661245e565b945061262f6020870161245e565b93506040860135925060608601359150608086013567ffffffffffffffff811115612658578182fd5b6125f4888289016124e9565b60008060408385031215612676578182fd5b61267f8361245e565b915060208301358015158114612693578182fd5b809150509250929050565b60008060008060008060c087890312156126b6578081fd5b6126bf8761245e565b95506020870135600381106126d2578182fd5b9450604087013563ffffffff811681146126ea578182fd5b9350606087013592506080870135915061270660a0880161245e565b90509295509295509295565b60008060408385031215612724578182fd5b61272d8361245e565b946020939093013593505050565b600080600080600060a08688031215612752578283fd5b61275b8661245e565b9450602086013593506127706040870161245e565b94979396509394606081013594506080013592915050565b6000806040838503121561279a578182fd5b823567ffffffffffffffff808211156127b1578384fd5b818501915085601f8301126127c4578384fd5b813560206127d182612d8f565b6040516127de8282612e2f565b8381528281019150858301600585901b870184018b10156127fd578889fd5b8896505b84871015612826576128128161245e565b835260019690960195918301918301612801565b509650508601359250508082111561283c578283fd5b5061284985828601612475565b9150509250929050565b600060208284031215612864578081fd5b5035919050565b6000806040838503121561287d578182fd5b823591506125526020840161245e565b60006020828403121561289e578081fd5b813561250881612f45565b6000602082840312156128ba578081fd5b815161250881612f45565b6000602082840312156128d6578081fd5b813567ffffffffffffffff8111156128ec578182fd5b8201601f810184136128fc578182fd5b61290b84823560208401612400565b949350505050565b600080600060608486031215612927578081fd5b833592506020840135915061293e6040850161245e565b90509250925092565b6000815180845260208085019450808401835b838110156129765781518752958201959082019060010161295a565b509495945050505050565b60008151808452815b818110156129a65760208185018101518683018201520161298a565b818111156129b75782602083870101525b50601f01601f19169290920160200192915050565b600381106129ea57634e487b7160e01b600052602160045260246000fd5b9052565b80516001600160a01b0316825260208082015190612a0e908401826129cc565b5060408181015190830152606090810151910152565b6001600160a01b0386811682528516602082015260a060408201819052600090612a5090830186612947565b8281036060840152612a628186612947565b90508281036080840152612a768185612981565b98975050505050505050565b6001600160a01b03868116825285166020820152604081018490526060810183905260a060808201819052600090612abc90830184612981565b979650505050505050565b6020808252825182820181905260009190848201906040850190845b81811015612aff57835183529284019291840191600101612ae3565b50909695505050505050565b6020815260006125086020830184612947565b604081526000612b316040830185612947565b8281036020840152610a238185612947565b60808101612b5182876129cc565b84602083015283604083015263ffffffff8316606083015295945050505050565b6020815260006125086020830184612981565b60208082526028908201527f455243313135353a204552433131353552656365697665722072656a656374656040820152676420746f6b656e7360c01b606082015260800190565b60208082526015908201527421b0b63632b91034b9903737ba103a343290282ba760591b604082015260600190565b60208082526025908201527f455243313135353a207472616e7366657220746f20746865207a65726f206164604082015264647265737360d81b606082015260800190565b6020808252602a908201527f455243313135353a20696e73756666696369656e742062616c616e636520666f60408201526939103a3930b739b332b960b11b606082015260800190565b6020808252818101527f4f776e61626c653a2063616c6c6572206973206e6f7420746865206f776e6572604082015260600190565b60208082526025908201527f546865206465656420646f65736e27742062656c6f6e6720746f20746865206360408201526430b63632b960d91b606082015260800190565b608081016106d882846129ee565b848152602081018490526001600160a01b038316604082015260e08101610a2360608301846129ee565b60ff871681526001600160a01b038616602082015263ffffffff8516604082015264ffffffffff841660608201526101208101612d7d60808301856129ee565b82610100830152979650505050505050565b600067ffffffffffffffff821115612da957612da9612e8d565b5060051b60200190565b60008219821115612dc657612dc6612e77565b500190565b600064ffffffffff808316818516808303821115612deb57612deb612e77565b01949350505050565b600181811c90821680612e0857607f821691505b60208210811415612e2957634e487b7160e01b600052602260045260246000fd5b50919050565b601f8201601f1916810167ffffffffffffffff81118282101715612e5557612e55612e8d565b6040525050565b6000600019821415612e7057612e70612e77565b5060010190565b634e487b7160e01b600052601160045260246000fd5b634e487b7160e01b600052604160045260246000fd5b600060033d1115612eb857600481823e5160e01c5b90565b600060443d1015612ec95790565b6040516003193d81016004833e81513d67ffffffffffffffff8160248401118184111715612ef957505050505090565b8285019150815181811115612f115750505050505090565b843d8701016020828501011115612f2b5750505050505090565b612f3a60208286010187612e2f565b509095945050505050565b6001600160e01b03198116811461123157600080fdfea264697066735822122099f55b7b84b8152b15cf86e18db82027fdd9af7f0a8b2075ef34f5c4e784dd7864736f6c63430008040033",
  "bytecodeSha1": "7fcb042979e92c52ca74b68150165636eb09b4f0",
  "compiler": {
    "evm_version": "istanbul",
    "optimizer": {
      "enabled": true,
      "runs": 200
    },
    "version": "0.8.4+commit.c7e474f2"
  },
  "contractName": "PWNDeed",
  "language": "Solidity",
  "natspec": {
    "kind": "dev",
    "methods": {
      "acceptOffer(uint256,bytes32,address)": {
        "details": "function to set accepted offer",
        "notice": "acceptOffer",
        "params": {
          "_did": "ID of the Deed the offer should be bound to",
          "_offer": "Hash identifying an offer",
          "_owner": "Address of the borrower who issued the Deed"
        }
      },
      "balanceOf(address,uint256)": {
        "details": "See {IERC1155-balanceOf}. Requirements: - `account` cannot be the zero address."
      },
      "balanceOfBatch(address[],uint256[])": {
        "details": "See {IERC1155-balanceOfBatch}. Requirements: - `accounts` and `ids` must have the same length."
      },
      "burn(uint256,address)": {
        "details": "function that would burn the deed token if the token is in dead state",
        "notice": "burn",
        "params": {
          "_did": "ID of the Deed which is burned",
          "_owner": "Address of the deed token owner"
        }
      },
      "claim(uint256,address)": {
        "details": "function that would burn the deed token if the token is in paidBack or expired state",
        "notice": "claim",
        "params": {
          "_did": "ID of the Deed which is claimed",
          "_owner": "Address of the deed token owner"
        }
      },
      "create(address,uint8,uint32,uint256,uint256,address)": {
        "details": "Creates the PWN Deed token contract - ERC1155 with extra use case specific features",
        "notice": "create",
        "params": {
          "_assetAddress": "Address of the asset contract",
          "_assetAmount": "Amount of an ERC20 or ERC1155 token || 0 in case of NFTs",
          "_assetCategory": "Category of the asset - see { MultiToken.sol }",
          "_assetId": "ID of an ERC721 or ERC1155 token || 0 in case the token doesn't have IDs",
          "_duration": "Loan duration in seconds",
          "_owner": "Address initiating the new Deed"
        },
        "returns": {
          "_0": "Deed ID of the newly minted Deed"
        }
      },
      "getAcceptedOffer(uint256)": {
        "details": "used to get a list of made offers to be queried in the UI - needs additional check for re-validating each offerrevalidation requires checking if the lender has sufficient balance and approved the asset",
        "notice": "getAcceptedOffer",
        "params": {
          "_did": "Deed ID being queried for offers"
        },
        "returns": {
          "_0": "Hash of the accepted offer"
        }
      },
      "getBorrower(uint256)": {
        "details": "utility function to find out a borrower address of a particular Deed",
        "notice": "getBorrower",
        "params": {
          "_did": "Deed ID to be checked"
        },
        "returns": {
          "_0": "address of the borrower"
        }
      },
      "getDeedCollateral(uint256)": {
        "details": "utility function to find out collateral asset of a particular Deed",
        "notice": "getDeedCollateral",
        "params": {
          "_did": "Deed ID to be checked"
        },
        "returns": {
          "_0": "Asset construct - for definition see { MultiToken.sol }"
        }
      },
      "getDeedID(bytes32)": {
        "details": "utility function to find out which Deed is an offer associated with",
        "notice": "getDeedID",
        "params": {
          "_offer": "Offer hash of an offer to be prompted"
        },
        "returns": {
          "_0": "Deed ID"
        }
      },
      "getDeedStatus(uint256)": {
        "details": "used in contract calls & status checks and also in UI for elementary deed status categorization",
        "notice": "getDeedStatus",
        "params": {
          "_did": "Deed ID checked for status"
        },
        "returns": {
          "_0": "a status number"
        }
      },
      "getDuration(uint256)": {
        "details": "utility function to find out loan duration period of a particular Deed",
        "notice": "getDuration",
        "params": {
          "_did": "Deed ID to be checked"
        },
        "returns": {
          "_0": "loan duration period in seconds"
        }
      },
      "getExpiration(uint256)": {
        "details": "utility function to find out exact expiration time of a particular Deedfor simple status check use `this.getDeedStatus(did)` if `status == 4` then Deed has expired",
        "notice": "getExpiration",
        "params": {
          "_did": "Deed ID to be checked"
        },
        "returns": {
          "_0": "unix time stamp in seconds"
        }
      },
      "getLender(bytes32)": {
        "details": "utility function to find out a lender address of a particular offer",
        "notice": "getLender",
        "params": {
          "_offer": "Offer hash of an offer to be prompted"
        },
        "returns": {
          "_0": "Address of the lender"
        }
      },
      "getOfferLoan(bytes32)": {
        "details": "utility function that returns the loan asset of a particular offer",
        "notice": "getOfferLoan",
        "params": {
          "_offer": "Offer hash of an offer to be prompted"
        },
        "returns": {
          "_0": "Asset construct - for definition see { MultiToken.sol }"
        }
      },
      "getOffers(uint256)": {
        "details": "utility function to get a list of all pending offers of a Deed",
        "notice": "getOffers",
        "params": {
          "_did": "Deed ID to be checked"
        },
        "returns": {
          "_0": "a list of offer hashes"
        }
      },
      "isApprovedForAll(address,address)": {
        "details": "See {IERC1155-isApprovedForAll}."
      },
      "makeOffer(address,uint256,address,uint256,uint256)": {
        "details": "saves an offer object that defines loan termsonly ERC20 tokens can be offered as loan",
        "notice": "makeOffer",
        "params": {
          "_assetAddress": "Address of the asset contract",
          "_assetAmount": "Amount of an ERC20 token to be offered as loan",
          "_did": "ID of the Deed the offer should be bound to",
          "_lender": "Address of the asset lender",
          "_toBePaid": "Amount to be paid back by the borrower"
        },
        "returns": {
          "_0": "hash of the newly created offer"
        }
      },
      "owner()": {
        "details": "Returns the address of the current owner."
      },
      "renounceOwnership()": {
        "details": "Leaves the contract without owner. It will not be possible to call `onlyOwner` functions anymore. Can only be called by the current owner. NOTE: Renouncing ownership will leave the contract without an owner, thereby removing any functionality that is only available to the owner."
      },
      "repayLoan(uint256)": {
        "details": "function to make proper state transition",
        "notice": "repayLoan",
        "params": {
          "_did": "ID of the Deed which is paid back"
        }
      },
      "revoke(uint256,address)": {
        "details": "Burns a deed token",
        "notice": "revoke",
        "params": {
          "_did": "Deed ID of the token to be burned",
          "_owner": "Address of the borrower who issued the Deed"
        }
      },
      "revokeOffer(bytes32,address)": {
        "details": "function to remove a pending offerThis only removes the offer representation but it doesn't remove the offer from a list of pending offers.         The offers associated with a deed has to be filtered on the front end to only list the valid ones.         No longer existent offers will simply return 0 if prompted about their DID.TODO: consider ways to remove the offer from the pending offers array / maybe replace for a mapping",
        "notice": "revokeOffer",
        "params": {
          "_lender": "Address of the lender who made the offer",
          "_offer": "Hash identifying an offer"
        }
      },
      "safeBatchTransferFrom(address,address,uint256[],uint256[],bytes)": {
        "details": "See {IERC1155-safeBatchTransferFrom}."
      },
      "safeTransferFrom(address,address,uint256,uint256,bytes)": {
        "details": "See {IERC1155-safeTransferFrom}."
      },
      "setApprovalForAll(address,bool)": {
        "details": "See {IERC1155-setApprovalForAll}."
      },
      "setPWN(address)": {
        "details": "An essential setup function. Has to be called once PWN contract was deployed",
        "notice": "setPWN",
        "params": {
          "_address": "Identifying the PWN contract"
        }
      },
      "setUri(string)": {
        "details": "An non-essential setup function. Can be called to adjust the Deed token metadata URI",
        "notice": "setUri",
        "params": {
          "_newUri": "setting the new origin of Deed metadata"
        }
      },
      "supportsInterface(bytes4)": {
        "details": "See {IERC165-supportsInterface}."
      },
      "toBePaid(bytes32)": {
        "details": "quick query of the total amount to be paid to an offer",
        "notice": "toBePaid",
        "params": {
          "_offer": "Offer hash of an offer to be prompted"
        },
        "returns": {
          "_0": "Amount to be paid back"
        }
      },
      "transferOwnership(address)": {
        "details": "Transfers ownership of the contract to a new account (`newOwner`). Can only be called by the current owner."
      },
      "uri(uint256)": {
        "details": "See {IERC1155MetadataURI-uri}. This implementation returns the same URI for *all* token types. It relies on the token type ID substitution mechanism https://eips.ethereum.org/EIPS/eip-1155#metadata[defined in the EIP]. Clients calling this function must replace the `\\{id\\}` substring with the actual token type ID."
      }
    },
    "version": 1
  },
  "opcodes": "PUSH1 0x80 PUSH1 0x40 MSTORE CALLVALUE DUP1 ISZERO PUSH2 0x10 JUMPI PUSH1 0x0 DUP1 REVERT JUMPDEST POP PUSH1 0x4 CALLDATASIZE LT PUSH2 0x21B JUMPI PUSH1 0x0 CALLDATALOAD PUSH1 0xE0 SHR DUP1 PUSH4 0x8500D919 GT PUSH2 0x125 JUMPI DUP1 PUSH4 0xD05197C1 GT PUSH2 0xAD JUMPI DUP1 PUSH4 0xF1898A95 GT PUSH2 0x7C JUMPI DUP1 PUSH4 0xF1898A95 EQ PUSH2 0x5D3 JUMPI DUP1 PUSH4 0xF242432A EQ PUSH2 0x5F8 JUMPI DUP1 PUSH4 0xF2FDE38B EQ PUSH2 0x60B JUMPI DUP1 PUSH4 0xFC09DE89 EQ PUSH2 0x61E JUMPI DUP1 PUSH4 0xFCD3533C EQ PUSH2 0x631 JUMPI PUSH1 0x0 DUP1 REVERT JUMPDEST DUP1 PUSH4 0xD05197C1 EQ PUSH2 0x551 JUMPI DUP1 PUSH4 0xDDD5E1B2 EQ PUSH2 0x564 JUMPI DUP1 PUSH4 0xDFA49E6F EQ PUSH2 0x577 JUMPI DUP1 PUSH4 0xE985E9C5 EQ PUSH2 0x597 JUMPI PUSH1 0x0 DUP1 REVERT JUMPDEST DUP1 PUSH4 0x9B642DE1 GT PUSH2 0xF4 JUMPI DUP1 PUSH4 0x9B642DE1 EQ PUSH2 0x4CB JUMPI DUP1 PUSH4 0xA05B775F EQ PUSH2 0x4DE JUMPI DUP1 PUSH4 0xA22CB465 EQ PUSH2 0x522 JUMPI DUP1 PUSH4 0xAB7B1C89 EQ PUSH2 0x535 JUMPI DUP1 PUSH4 0xAF640D0F EQ PUSH2 0x548 JUMPI PUSH1 0x0 DUP1 REVERT JUMPDEST DUP1 PUSH4 0x8500D919 EQ PUSH2 0x437 JUMPI DUP1 PUSH4 0x8BB126A7 EQ PUSH2 0x465 JUMPI DUP1 PUSH4 0x8C26BA0C EQ PUSH2 0x4A7 JUMPI DUP1 PUSH4 0x8DA5CB5B EQ PUSH2 0x4BA JUMPI PUSH1 0x0 DUP1 REVERT JUMPDEST DUP1 PUSH4 0x474D3FF0 GT PUSH2 0x1A8 JUMPI DUP1 PUSH4 0x691DA990 GT PUSH2 0x177 JUMPI DUP1 PUSH4 0x691DA990 EQ PUSH2 0x3B6 JUMPI DUP1 PUSH4 0x69BDC155 EQ PUSH2 0x3D9 JUMPI DUP1 PUSH4 0x715018A6 EQ PUSH2 0x3F9 JUMPI DUP1 PUSH4 0x7F4285F1 EQ PUSH2 0x401 JUMPI DUP1 PUSH4 0x805094C7 EQ PUSH2 0x424 JUMPI PUSH1 0x0 DUP1 REVERT JUMPDEST DUP1 PUSH4 0x474D3FF0 EQ PUSH2 0x34D JUMPI DUP1 PUSH4 0x4E1273F4 EQ PUSH2 0x370 JUMPI DUP1 PUSH4 0x600CA3D2 EQ PUSH2 0x390 JUMPI DUP1 PUSH4 0x63BBF33A EQ PUSH2 0x3A3 JUMPI PUSH1 0x0 DUP1 REVERT JUMPDEST DUP1 PUSH4 0x12DBC1D8 GT PUSH2 0x1EF JUMPI DUP1 PUSH4 0x12DBC1D8 EQ PUSH2 0x2CD JUMPI DUP1 PUSH4 0x1387C2B5 EQ PUSH2 0x2ED JUMPI DUP1 PUSH4 0x18EDF564 EQ PUSH2 0x300 JUMPI DUP1 PUSH4 0x20D154DA EQ PUSH2 0x325 JUMPI DUP1 PUSH4 0x2EB2C2D6 EQ PUSH2 0x33A JUMPI PUSH1 0x0 DUP1 REVERT JUMPDEST DUP1 PUSH3 0xFDD58E EQ PUSH2 0x220 JUMPI DUP1 PUSH4 0x1FFC9A7 EQ PUSH2 0x246 JUMPI DUP1 PUSH4 0xE89341C EQ PUSH2 0x269 JUMPI DUP1 PUSH4 0x1218239F EQ PUSH2 0x289 JUMPI JUMPDEST PUSH1 0x0 DUP1 REVERT JUMPDEST PUSH2 0x233 PUSH2 0x22E CALLDATASIZE PUSH1 0x4 PUSH2 0x2712 JUMP JUMPDEST PUSH2 0x644 JUMP JUMPDEST PUSH1 0x40 MLOAD SWAP1 DUP2 MSTORE PUSH1 0x20 ADD JUMPDEST PUSH1 0x40 MLOAD DUP1 SWAP2 SUB SWAP1 RETURN JUMPDEST PUSH2 0x259 PUSH2 0x254 CALLDATASIZE PUSH1 0x4 PUSH2 0x288D JUMP JUMPDEST PUSH2 0x6DE JUMP JUMPDEST PUSH1 0x40 MLOAD SWAP1 ISZERO ISZERO DUP2 MSTORE PUSH1 0x20 ADD PUSH2 0x23D JUMP JUMPDEST PUSH2 0x27C PUSH2 0x277 CALLDATASIZE PUSH1 0x4 PUSH2 0x2853 JUMP JUMPDEST PUSH2 0x72E JUMP JUMPDEST PUSH1 0x40 MLOAD PUSH2 0x23D SWAP2 SWAP1 PUSH2 0x2B72 JUMP JUMPDEST PUSH2 0x2B5 PUSH2 0x297 CALLDATASIZE PUSH1 0x4 PUSH2 0x2853 JUMP JUMPDEST PUSH1 0x0 SWAP1 DUP2 MSTORE PUSH1 0x8 PUSH1 0x20 MSTORE PUSH1 0x40 SWAP1 KECCAK256 PUSH1 0x2 ADD SLOAD PUSH1 0x1 PUSH1 0x1 PUSH1 0xA0 SHL SUB AND SWAP1 JUMP JUMPDEST PUSH1 0x40 MLOAD PUSH1 0x1 PUSH1 0x1 PUSH1 0xA0 SHL SUB SWAP1 SWAP2 AND DUP2 MSTORE PUSH1 0x20 ADD PUSH2 0x23D JUMP JUMPDEST PUSH2 0x2E0 PUSH2 0x2DB CALLDATASIZE PUSH1 0x4 PUSH2 0x2853 JUMP JUMPDEST PUSH2 0x7C2 JUMP JUMPDEST PUSH1 0x40 MLOAD PUSH2 0x23D SWAP2 SWAP1 PUSH2 0x2D05 JUMP JUMPDEST PUSH2 0x233 PUSH2 0x2FB CALLDATASIZE PUSH1 0x4 PUSH2 0x273B JUMP JUMPDEST PUSH2 0x885 JUMP JUMPDEST PUSH2 0x313 PUSH2 0x30E CALLDATASIZE PUSH1 0x4 PUSH2 0x2853 JUMP JUMPDEST PUSH2 0xA2C JUMP JUMPDEST PUSH1 0x40 MLOAD PUSH2 0x23D SWAP7 SWAP6 SWAP5 SWAP4 SWAP3 SWAP2 SWAP1 PUSH2 0x2D3D JUMP JUMPDEST PUSH2 0x338 PUSH2 0x333 CALLDATASIZE PUSH1 0x4 PUSH2 0x286B JUMP JUMPDEST PUSH2 0xAF8 JUMP JUMPDEST STOP JUMPDEST PUSH2 0x338 PUSH2 0x348 CALLDATASIZE PUSH1 0x4 PUSH2 0x255B JUMP JUMPDEST PUSH2 0xC06 JUMP JUMPDEST PUSH2 0x360 PUSH2 0x35B CALLDATASIZE PUSH1 0x4 PUSH2 0x2853 JUMP JUMPDEST PUSH2 0xC9D JUMP JUMPDEST PUSH1 0x40 MLOAD PUSH2 0x23D SWAP5 SWAP4 SWAP3 SWAP2 SWAP1 PUSH2 0x2D13 JUMP JUMPDEST PUSH2 0x383 PUSH2 0x37E CALLDATASIZE PUSH1 0x4 PUSH2 0x2788 JUMP JUMPDEST PUSH2 0xD4C JUMP JUMPDEST PUSH1 0x40 MLOAD PUSH2 0x23D SWAP2 SWAP1 PUSH2 0x2B0B JUMP JUMPDEST PUSH2 0x338 PUSH2 0x39E CALLDATASIZE PUSH1 0x4 PUSH2 0x2913 JUMP JUMPDEST PUSH2 0xEAE JUMP JUMPDEST PUSH2 0x233 PUSH2 0x3B1 CALLDATASIZE PUSH1 0x4 PUSH2 0x269E JUMP JUMPDEST PUSH2 0x1021 JUMP JUMPDEST PUSH2 0x233 PUSH2 0x3C4 CALLDATASIZE PUSH1 0x4 PUSH2 0x2853 JUMP JUMPDEST PUSH1 0x0 SWAP1 DUP2 MSTORE PUSH1 0x7 PUSH1 0x20 MSTORE PUSH1 0x40 SWAP1 KECCAK256 PUSH1 0x4 ADD SLOAD SWAP1 JUMP JUMPDEST PUSH2 0x233 PUSH2 0x3E7 CALLDATASIZE PUSH1 0x4 PUSH2 0x2853 JUMP JUMPDEST PUSH1 0x0 SWAP1 DUP2 MSTORE PUSH1 0x8 PUSH1 0x20 MSTORE PUSH1 0x40 SWAP1 KECCAK256 SLOAD SWAP1 JUMP JUMPDEST PUSH2 0x338 PUSH2 0x117C JUMP JUMPDEST PUSH2 0x233 PUSH2 0x40F CALLDATASIZE PUSH1 0x4 PUSH2 0x2853 JUMP JUMPDEST PUSH1 0x0 SWAP1 DUP2 MSTORE PUSH1 0x8 PUSH1 0x20 MSTORE PUSH1 0x40 SWAP1 KECCAK256 PUSH1 0x1 ADD SLOAD SWAP1 JUMP JUMPDEST PUSH1 0x4 SLOAD PUSH2 0x2B5 SWAP1 PUSH1 0x1 PUSH1 0x1 PUSH1 0xA0 SHL SUB AND DUP2 JUMP JUMPDEST PUSH2 0x2B5 PUSH2 0x445 CALLDATASIZE PUSH1 0x4 PUSH2 0x2853 JUMP JUMPDEST PUSH1 0x0 SWAP1 DUP2 MSTORE PUSH1 0x7 PUSH1 0x20 MSTORE PUSH1 0x40 SWAP1 KECCAK256 SLOAD PUSH2 0x100 SWAP1 DIV PUSH1 0x1 PUSH1 0x1 PUSH1 0xA0 SHL SUB AND SWAP1 JUMP JUMPDEST PUSH2 0x492 PUSH2 0x473 CALLDATASIZE PUSH1 0x4 PUSH2 0x2853 JUMP JUMPDEST PUSH1 0x0 SWAP1 DUP2 MSTORE PUSH1 0x7 PUSH1 0x20 MSTORE PUSH1 0x40 SWAP1 KECCAK256 SLOAD PUSH1 0x1 PUSH1 0xA8 SHL SWAP1 DIV PUSH4 0xFFFFFFFF AND SWAP1 JUMP JUMPDEST PUSH1 0x40 MLOAD PUSH4 0xFFFFFFFF SWAP1 SWAP2 AND DUP2 MSTORE PUSH1 0x20 ADD PUSH2 0x23D JUMP JUMPDEST PUSH2 0x338 PUSH2 0x4B5 CALLDATASIZE PUSH1 0x4 PUSH2 0x250F JUMP JUMPDEST PUSH2 0x11B2 JUMP JUMPDEST PUSH1 0x3 SLOAD PUSH1 0x1 PUSH1 0x1 PUSH1 0xA0 SHL SUB AND PUSH2 0x2B5 JUMP JUMPDEST PUSH2 0x338 PUSH2 0x4D9 CALLDATASIZE PUSH1 0x4 PUSH2 0x28C5 JUMP JUMPDEST PUSH2 0x11FE JUMP JUMPDEST PUSH2 0x50C PUSH2 0x4EC CALLDATASIZE PUSH1 0x4 PUSH2 0x2853 JUMP JUMPDEST PUSH1 0x0 SWAP1 DUP2 MSTORE PUSH1 0x7 PUSH1 0x20 MSTORE PUSH1 0x40 SWAP1 KECCAK256 SLOAD PUSH1 0x1 PUSH1 0xC8 SHL SWAP1 DIV PUSH5 0xFFFFFFFFFF AND SWAP1 JUMP JUMPDEST PUSH1 0x40 MLOAD PUSH5 0xFFFFFFFFFF SWAP1 SWAP2 AND DUP2 MSTORE PUSH1 0x20 ADD PUSH2 0x23D JUMP JUMPDEST PUSH2 0x338 PUSH2 0x530 CALLDATASIZE PUSH1 0x4 PUSH2 0x2664 JUMP JUMPDEST PUSH2 0x1234 JUMP JUMPDEST PUSH2 0x338 PUSH2 0x543 CALLDATASIZE PUSH1 0x4 PUSH2 0x2853 JUMP JUMPDEST PUSH2 0x1243 JUMP JUMPDEST PUSH2 0x233 PUSH1 0x5 SLOAD DUP2 JUMP JUMPDEST PUSH2 0x2E0 PUSH2 0x55F CALLDATASIZE PUSH1 0x4 PUSH2 0x2853 JUMP JUMPDEST PUSH2 0x133C JUMP JUMPDEST PUSH2 0x338 PUSH2 0x572 CALLDATASIZE PUSH1 0x4 PUSH2 0x286B JUMP JUMPDEST PUSH2 0x13C2 JUMP JUMPDEST PUSH2 0x58A PUSH2 0x585 CALLDATASIZE PUSH1 0x4 PUSH2 0x2853 JUMP JUMPDEST PUSH2 0x14E9 JUMP JUMPDEST PUSH1 0x40 MLOAD PUSH2 0x23D SWAP2 SWAP1 PUSH2 0x2AC7 JUMP JUMPDEST PUSH2 0x259 PUSH2 0x5A5 CALLDATASIZE PUSH1 0x4 PUSH2 0x2529 JUMP JUMPDEST PUSH1 0x1 PUSH1 0x1 PUSH1 0xA0 SHL SUB SWAP2 DUP3 AND PUSH1 0x0 SWAP1 DUP2 MSTORE PUSH1 0x1 PUSH1 0x20 SWAP1 DUP2 MSTORE PUSH1 0x40 DUP1 DUP4 KECCAK256 SWAP4 SWAP1 SWAP5 AND DUP3 MSTORE SWAP2 SWAP1 SWAP2 MSTORE KECCAK256 SLOAD PUSH1 0xFF AND SWAP1 JUMP JUMPDEST PUSH2 0x5E6 PUSH2 0x5E1 CALLDATASIZE PUSH1 0x4 PUSH2 0x2853 JUMP JUMPDEST PUSH2 0x154D JUMP JUMPDEST PUSH1 0x40 MLOAD PUSH1 0xFF SWAP1 SWAP2 AND DUP2 MSTORE PUSH1 0x20 ADD PUSH2 0x23D JUMP JUMPDEST PUSH2 0x338 PUSH2 0x606 CALLDATASIZE PUSH1 0x4 PUSH2 0x2601 JUMP JUMPDEST PUSH2 0x15DA JUMP JUMPDEST PUSH2 0x338 PUSH2 0x619 CALLDATASIZE PUSH1 0x4 PUSH2 0x250F JUMP JUMPDEST PUSH2 0x1661 JUMP JUMPDEST PUSH2 0x338 PUSH2 0x62C CALLDATASIZE PUSH1 0x4 PUSH2 0x286B JUMP JUMPDEST PUSH2 0x16F9 JUMP JUMPDEST PUSH2 0x338 PUSH2 0x63F CALLDATASIZE PUSH1 0x4 PUSH2 0x286B JUMP JUMPDEST PUSH2 0x188F JUMP JUMPDEST PUSH1 0x0 PUSH1 0x1 PUSH1 0x1 PUSH1 0xA0 SHL SUB DUP4 AND PUSH2 0x6B5 JUMPI PUSH1 0x40 MLOAD PUSH3 0x461BCD PUSH1 0xE5 SHL DUP2 MSTORE PUSH1 0x20 PUSH1 0x4 DUP3 ADD MSTORE PUSH1 0x2B PUSH1 0x24 DUP3 ADD MSTORE PUSH32 0x455243313135353A2062616C616E636520717565727920666F7220746865207A PUSH1 0x44 DUP3 ADD MSTORE PUSH11 0x65726F2061646472657373 PUSH1 0xA8 SHL PUSH1 0x64 DUP3 ADD MSTORE PUSH1 0x84 ADD JUMPDEST PUSH1 0x40 MLOAD DUP1 SWAP2 SUB SWAP1 REVERT JUMPDEST POP PUSH1 0x0 DUP2 DUP2 MSTORE PUSH1 0x20 DUP2 DUP2 MSTORE PUSH1 0x40 DUP1 DUP4 KECCAK256 PUSH1 0x1 PUSH1 0x1 PUSH1 0xA0 SHL SUB DUP7 AND DUP5 MSTORE SWAP1 SWAP2 MSTORE SWAP1 KECCAK256 SLOAD JUMPDEST SWAP3 SWAP2 POP POP JUMP JUMPDEST PUSH1 0x0 PUSH1 0x1 PUSH1 0x1 PUSH1 0xE0 SHL SUB NOT DUP3 AND PUSH4 0x6CDB3D13 PUSH1 0xE1 SHL EQ DUP1 PUSH2 0x70F JUMPI POP PUSH1 0x1 PUSH1 0x1 PUSH1 0xE0 SHL SUB NOT DUP3 AND PUSH4 0x3A24D07 PUSH1 0xE2 SHL EQ JUMPDEST DUP1 PUSH2 0x6D8 JUMPI POP PUSH4 0x1FFC9A7 PUSH1 0xE0 SHL PUSH1 0x1 PUSH1 0x1 PUSH1 0xE0 SHL SUB NOT DUP4 AND EQ PUSH2 0x6D8 JUMP JUMPDEST PUSH1 0x60 PUSH1 0x2 DUP1 SLOAD PUSH2 0x73D SWAP1 PUSH2 0x2DF4 JUMP JUMPDEST DUP1 PUSH1 0x1F ADD PUSH1 0x20 DUP1 SWAP2 DIV MUL PUSH1 0x20 ADD PUSH1 0x40 MLOAD SWAP1 DUP2 ADD PUSH1 0x40 MSTORE DUP1 SWAP3 SWAP2 SWAP1 DUP2 DUP2 MSTORE PUSH1 0x20 ADD DUP3 DUP1 SLOAD PUSH2 0x769 SWAP1 PUSH2 0x2DF4 JUMP JUMPDEST DUP1 ISZERO PUSH2 0x7B6 JUMPI DUP1 PUSH1 0x1F LT PUSH2 0x78B JUMPI PUSH2 0x100 DUP1 DUP4 SLOAD DIV MUL DUP4 MSTORE SWAP2 PUSH1 0x20 ADD SWAP2 PUSH2 0x7B6 JUMP JUMPDEST DUP3 ADD SWAP2 SWAP1 PUSH1 0x0 MSTORE PUSH1 0x20 PUSH1 0x0 KECCAK256 SWAP1 JUMPDEST DUP2 SLOAD DUP2 MSTORE SWAP1 PUSH1 0x1 ADD SWAP1 PUSH1 0x20 ADD DUP1 DUP4 GT PUSH2 0x799 JUMPI DUP3 SWAP1 SUB PUSH1 0x1F AND DUP3 ADD SWAP2 JUMPDEST POP POP POP POP POP SWAP1 POP SWAP2 SWAP1 POP JUMP JUMPDEST PUSH2 0x7EE PUSH1 0x40 DUP1 MLOAD PUSH1 0x80 DUP2 ADD SWAP1 SWAP2 MSTORE PUSH1 0x0 DUP1 DUP3 MSTORE PUSH1 0x20 DUP3 ADD SWAP1 DUP2 MSTORE PUSH1 0x20 ADD PUSH1 0x0 DUP2 MSTORE PUSH1 0x20 ADD PUSH1 0x0 DUP2 MSTORE POP SWAP1 JUMP JUMPDEST PUSH1 0x0 DUP3 DUP2 MSTORE PUSH1 0x7 PUSH1 0x20 SWAP1 DUP2 MSTORE PUSH1 0x40 SWAP2 DUP3 SWAP1 KECCAK256 DUP3 MLOAD PUSH1 0x80 DUP2 ADD SWAP1 SWAP4 MSTORE PUSH1 0x1 ADD DUP1 SLOAD PUSH1 0x1 PUSH1 0x1 PUSH1 0xA0 SHL SUB DUP2 AND DUP5 MSTORE SWAP1 SWAP2 DUP4 ADD SWAP1 PUSH1 0x1 PUSH1 0xA0 SHL SWAP1 DIV PUSH1 0xFF AND PUSH1 0x2 DUP2 GT ISZERO PUSH2 0x848 JUMPI PUSH4 0x4E487B71 PUSH1 0xE0 SHL PUSH1 0x0 MSTORE PUSH1 0x21 PUSH1 0x4 MSTORE PUSH1 0x24 PUSH1 0x0 REVERT JUMPDEST PUSH1 0x2 DUP2 GT ISZERO PUSH2 0x867 JUMPI PUSH4 0x4E487B71 PUSH1 0xE0 SHL PUSH1 0x0 MSTORE PUSH1 0x21 PUSH1 0x4 MSTORE PUSH1 0x24 PUSH1 0x0 REVERT JUMPDEST DUP2 MSTORE PUSH1 0x1 DUP3 ADD SLOAD PUSH1 0x20 DUP3 ADD MSTORE PUSH1 0x2 SWAP1 SWAP2 ADD SLOAD PUSH1 0x40 SWAP1 SWAP2 ADD MSTORE SWAP3 SWAP2 POP POP JUMP JUMPDEST PUSH1 0x4 SLOAD PUSH1 0x0 SWAP1 PUSH1 0x1 PUSH1 0x1 PUSH1 0xA0 SHL SUB AND CALLER EQ PUSH2 0x8B2 JUMPI PUSH1 0x40 MLOAD PUSH3 0x461BCD PUSH1 0xE5 SHL DUP2 MSTORE PUSH1 0x4 ADD PUSH2 0x6AC SWAP1 PUSH2 0x2BCD JUMP JUMPDEST PUSH2 0x8BB DUP4 PUSH2 0x154D JUMP JUMPDEST PUSH1 0xFF AND PUSH1 0x1 EQ PUSH2 0x90D JUMPI PUSH1 0x40 MLOAD PUSH3 0x461BCD PUSH1 0xE5 SHL DUP2 MSTORE PUSH1 0x20 PUSH1 0x4 DUP3 ADD MSTORE PUSH1 0x19 PUSH1 0x24 DUP3 ADD MSTORE PUSH32 0x44656564206E6F7420616363657074696E67206F666665727300000000000000 PUSH1 0x44 DUP3 ADD MSTORE PUSH1 0x64 ADD PUSH2 0x6AC JUMP JUMPDEST PUSH1 0x6 DUP1 SLOAD PUSH1 0x40 DUP1 MLOAD PUSH1 0x60 DUP9 SWAP1 SHL PUSH12 0xFFFFFFFFFFFFFFFFFFFFFFFF NOT AND PUSH1 0x20 DUP1 DUP4 ADD SWAP2 SWAP1 SWAP2 MSTORE PUSH1 0x34 DUP1 DUP4 ADD DUP6 SWAP1 MSTORE DUP4 MLOAD DUP1 DUP5 SUB SWAP1 SWAP2 ADD DUP2 MSTORE PUSH1 0x54 SWAP1 SWAP3 ADD SWAP1 SWAP3 MSTORE DUP1 MLOAD SWAP2 ADD KECCAK256 SWAP2 PUSH1 0x0 PUSH2 0x95D DUP4 PUSH2 0x2E5C JUMP JUMPDEST SWAP1 SWAP2 SSTORE POP POP PUSH1 0x0 DUP2 DUP2 MSTORE PUSH1 0x8 PUSH1 0x20 SWAP1 DUP2 MSTORE PUSH1 0x40 DUP1 DUP4 KECCAK256 PUSH1 0x3 DUP2 ADD DUP1 SLOAD PUSH1 0x1 PUSH1 0x1 PUSH1 0xA0 SHL SUB DUP14 DUP2 AND PUSH1 0x1 PUSH1 0x1 PUSH1 0xA0 SHL SUB NOT SWAP3 DUP4 AND DUP2 OR SWAP1 SWAP4 SSTORE PUSH1 0x4 DUP5 ADD DUP14 SWAP1 SSTORE PUSH1 0x1 DUP1 DUP6 ADD DUP12 SWAP1 SSTORE PUSH1 0x2 DUP6 ADD DUP1 SLOAD SWAP3 DUP15 AND SWAP3 SWAP1 SWAP4 AND DUP3 OR SWAP1 SWAP3 SSTORE DUP11 DUP5 SSTORE DUP11 DUP8 MSTORE PUSH1 0x7 DUP7 MSTORE DUP5 DUP8 KECCAK256 PUSH1 0x5 ADD DUP1 SLOAD SWAP3 DUP4 ADD DUP2 SSTORE DUP8 MSTORE SWAP6 DUP6 SWAP1 KECCAK256 ADD DUP7 SWAP1 SSTORE DUP3 MLOAD SWAP1 DUP2 MSTORE SWAP3 DUP4 ADD DUP11 SWAP1 MSTORE SWAP1 DUP3 ADD DUP7 SWAP1 MSTORE PUSH1 0x60 DUP3 ADD DUP5 SWAP1 MSTORE SWAP2 DUP7 SWAP2 PUSH32 0xAC3DC350FD8FE7A7B7C5B88BF344A2DF332C672B59D6DD43A0CD1794A7270E39 SWAP1 PUSH1 0x80 ADD PUSH1 0x40 MLOAD DUP1 SWAP2 SUB SWAP1 LOG3 POP SWAP1 POP JUMPDEST SWAP6 SWAP5 POP POP POP POP POP JUMP JUMPDEST PUSH1 0x7 PUSH1 0x20 SWAP1 DUP2 MSTORE PUSH1 0x0 SWAP2 DUP3 MSTORE PUSH1 0x40 SWAP2 DUP3 SWAP1 KECCAK256 DUP1 SLOAD DUP4 MLOAD PUSH1 0x80 DUP2 ADD SWAP1 SWAP5 MSTORE PUSH1 0x1 DUP3 ADD DUP1 SLOAD PUSH1 0x1 PUSH1 0x1 PUSH1 0xA0 SHL SUB DUP1 DUP3 AND DUP8 MSTORE PUSH1 0xFF DUP1 DUP6 AND SWAP8 PUSH2 0x100 DUP7 DIV SWAP1 SWAP3 AND SWAP7 PUSH1 0x1 PUSH1 0xA8 SHL DUP7 DIV PUSH4 0xFFFFFFFF AND SWAP7 PUSH1 0x1 PUSH1 0xC8 SHL SWAP1 SWAP7 DIV PUSH5 0xFFFFFFFFFF AND SWAP6 SWAP5 SWAP3 SWAP4 SWAP1 DUP5 ADD SWAP2 PUSH1 0x1 PUSH1 0xA0 SHL SWAP1 SWAP2 DIV AND PUSH1 0x2 DUP2 GT ISZERO PUSH2 0xAB8 JUMPI PUSH4 0x4E487B71 PUSH1 0xE0 SHL PUSH1 0x0 MSTORE PUSH1 0x21 PUSH1 0x4 MSTORE PUSH1 0x24 PUSH1 0x0 REVERT JUMPDEST PUSH1 0x2 DUP2 GT ISZERO PUSH2 0xAD7 JUMPI PUSH4 0x4E487B71 PUSH1 0xE0 SHL PUSH1 0x0 MSTORE PUSH1 0x21 PUSH1 0x4 MSTORE PUSH1 0x24 PUSH1 0x0 REVERT JUMPDEST DUP2 MSTORE PUSH1 0x1 DUP3 ADD SLOAD PUSH1 0x20 DUP3 ADD MSTORE PUSH1 0x2 SWAP1 SWAP2 ADD SLOAD PUSH1 0x40 SWAP1 SWAP2 ADD MSTORE PUSH1 0x4 SWAP1 SWAP2 ADD SLOAD DUP7 JUMP JUMPDEST PUSH1 0x4 SLOAD PUSH1 0x1 PUSH1 0x1 PUSH1 0xA0 SHL SUB AND CALLER EQ PUSH2 0xB22 JUMPI PUSH1 0x40 MLOAD PUSH3 0x461BCD PUSH1 0xE5 SHL DUP2 MSTORE PUSH1 0x4 ADD PUSH2 0x6AC SWAP1 PUSH2 0x2BCD JUMP JUMPDEST PUSH2 0xB2C DUP2 DUP4 PUSH2 0x644 JUMP JUMPDEST PUSH1 0x1 EQ PUSH2 0xB4B JUMPI PUSH1 0x40 MLOAD PUSH3 0x461BCD PUSH1 0xE5 SHL DUP2 MSTORE PUSH1 0x4 ADD PUSH2 0x6AC SWAP1 PUSH2 0x2CC0 JUMP JUMPDEST PUSH2 0xB54 DUP3 PUSH2 0x154D JUMP JUMPDEST PUSH1 0xFF AND PUSH1 0x1 EQ PUSH2 0xBB2 JUMPI PUSH1 0x40 MLOAD PUSH3 0x461BCD PUSH1 0xE5 SHL DUP2 MSTORE PUSH1 0x20 PUSH1 0x4 DUP3 ADD MSTORE PUSH1 0x23 PUSH1 0x24 DUP3 ADD MSTORE PUSH32 0x446565642063616E2774206265207265766F6B65642061742074686973207374 PUSH1 0x44 DUP3 ADD MSTORE PUSH3 0x616765 PUSH1 0xE8 SHL PUSH1 0x64 DUP3 ADD MSTORE PUSH1 0x84 ADD PUSH2 0x6AC JUMP JUMPDEST PUSH1 0x0 DUP3 DUP2 MSTORE PUSH1 0x7 PUSH1 0x20 MSTORE PUSH1 0x40 SWAP1 DUP2 SWAP1 KECCAK256 DUP1 SLOAD PUSH1 0xFF NOT AND SWAP1 SSTORE MLOAD PUSH32 0x5E7D27D7357DA2BCE071CB0105A9736B8264B9C259F97215D7E2F7B502881DD8 SWAP1 PUSH2 0xBFA SWAP1 DUP5 DUP2 MSTORE PUSH1 0x20 ADD SWAP1 JUMP JUMPDEST PUSH1 0x40 MLOAD DUP1 SWAP2 SUB SWAP1 LOG1 POP POP JUMP JUMPDEST PUSH1 0x1 PUSH1 0x1 PUSH1 0xA0 SHL SUB DUP6 AND CALLER EQ DUP1 PUSH2 0xC22 JUMPI POP PUSH2 0xC22 DUP6 CALLER PUSH2 0x5A5 JUMP JUMPDEST PUSH2 0xC89 JUMPI PUSH1 0x40 MLOAD PUSH3 0x461BCD PUSH1 0xE5 SHL DUP2 MSTORE PUSH1 0x20 PUSH1 0x4 DUP3 ADD MSTORE PUSH1 0x32 PUSH1 0x24 DUP3 ADD MSTORE PUSH32 0x455243313135353A207472616E736665722063616C6C6572206973206E6F7420 PUSH1 0x44 DUP3 ADD MSTORE PUSH18 0x1BDDDB995C881B9BDC88185C1C1C9BDD9959 PUSH1 0x72 SHL PUSH1 0x64 DUP3 ADD MSTORE PUSH1 0x84 ADD PUSH2 0x6AC JUMP JUMPDEST PUSH2 0xC96 DUP6 DUP6 DUP6 DUP6 DUP6 PUSH2 0x19DB JUMP JUMPDEST POP POP POP POP POP JUMP JUMPDEST PUSH1 0x8 PUSH1 0x20 SWAP1 DUP2 MSTORE PUSH1 0x0 SWAP2 DUP3 MSTORE PUSH1 0x40 SWAP2 DUP3 SWAP1 KECCAK256 DUP1 SLOAD PUSH1 0x1 DUP3 ADD SLOAD PUSH1 0x2 DUP1 DUP5 ADD SLOAD DUP7 MLOAD PUSH1 0x80 DUP2 ADD SWAP1 SWAP8 MSTORE PUSH1 0x3 DUP6 ADD DUP1 SLOAD PUSH1 0x1 PUSH1 0x1 PUSH1 0xA0 SHL SUB DUP1 DUP3 AND DUP11 MSTORE SWAP6 SWAP9 SWAP5 SWAP8 SWAP6 SWAP1 SWAP3 AND SWAP6 SWAP5 SWAP1 SWAP3 SWAP1 DUP5 ADD SWAP2 PUSH1 0x1 PUSH1 0xA0 SHL SWAP1 DIV PUSH1 0xFF AND SWAP1 DUP2 GT ISZERO PUSH2 0xD10 JUMPI PUSH4 0x4E487B71 PUSH1 0xE0 SHL PUSH1 0x0 MSTORE PUSH1 0x21 PUSH1 0x4 MSTORE PUSH1 0x24 PUSH1 0x0 REVERT JUMPDEST PUSH1 0x2 DUP2 GT ISZERO PUSH2 0xD2F JUMPI PUSH4 0x4E487B71 PUSH1 0xE0 SHL PUSH1 0x0 MSTORE PUSH1 0x21 PUSH1 0x4 MSTORE PUSH1 0x24 PUSH1 0x0 REVERT JUMPDEST DUP2 MSTORE PUSH1 0x20 ADD PUSH1 0x1 DUP3 ADD SLOAD DUP2 MSTORE PUSH1 0x20 ADD PUSH1 0x2 DUP3 ADD SLOAD DUP2 MSTORE POP POP SWAP1 POP DUP5 JUMP JUMPDEST PUSH1 0x60 DUP2 MLOAD DUP4 MLOAD EQ PUSH2 0xDB1 JUMPI PUSH1 0x40 MLOAD PUSH3 0x461BCD PUSH1 0xE5 SHL DUP2 MSTORE PUSH1 0x20 PUSH1 0x4 DUP3 ADD MSTORE PUSH1 0x29 PUSH1 0x24 DUP3 ADD MSTORE PUSH32 0x455243313135353A206163636F756E747320616E6420696473206C656E677468 PUSH1 0x44 DUP3 ADD MSTORE PUSH9 0x40DAD2E6DAC2E8C6D PUSH1 0xBB SHL PUSH1 0x64 DUP3 ADD MSTORE PUSH1 0x84 ADD PUSH2 0x6AC JUMP JUMPDEST PUSH1 0x0 DUP4 MLOAD PUSH8 0xFFFFFFFFFFFFFFFF DUP2 GT ISZERO PUSH2 0xDDB JUMPI PUSH4 0x4E487B71 PUSH1 0xE0 SHL PUSH1 0x0 MSTORE PUSH1 0x41 PUSH1 0x4 MSTORE PUSH1 0x24 PUSH1 0x0 REVERT JUMPDEST PUSH1 0x40 MLOAD SWAP1 DUP1 DUP3 MSTORE DUP1 PUSH1 0x20 MUL PUSH1 0x20 ADD DUP3 ADD PUSH1 0x40 MSTORE DUP1 ISZERO PUSH2 0xE04 JUMPI DUP2 PUSH1 0x20 ADD PUSH1 0x20 DUP3 MUL DUP1 CALLDATASIZE DUP4 CALLDATACOPY ADD SWAP1 POP JUMPDEST POP SWAP1 POP PUSH1 0x0 JUMPDEST DUP5 MLOAD DUP2 LT ISZERO PUSH2 0xEA6 JUMPI PUSH2 0xE6B DUP6 DUP3 DUP2 MLOAD DUP2 LT PUSH2 0xE36 JUMPI PUSH4 0x4E487B71 PUSH1 0xE0 SHL PUSH1 0x0 MSTORE PUSH1 0x32 PUSH1 0x4 MSTORE PUSH1 0x24 PUSH1 0x0 REVERT JUMPDEST PUSH1 0x20 MUL PUSH1 0x20 ADD ADD MLOAD DUP6 DUP4 DUP2 MLOAD DUP2 LT PUSH2 0xE5E JUMPI PUSH4 0x4E487B71 PUSH1 0xE0 SHL PUSH1 0x0 MSTORE PUSH1 0x32 PUSH1 0x4 MSTORE PUSH1 0x24 PUSH1 0x0 REVERT JUMPDEST PUSH1 0x20 MUL PUSH1 0x20 ADD ADD MLOAD PUSH2 0x644 JUMP JUMPDEST DUP3 DUP3 DUP2 MLOAD DUP2 LT PUSH2 0xE8B JUMPI PUSH4 0x4E487B71 PUSH1 0xE0 SHL PUSH1 0x0 MSTORE PUSH1 0x32 PUSH1 0x4 MSTORE PUSH1 0x24 PUSH1 0x0 REVERT JUMPDEST PUSH1 0x20 SWAP1 DUP2 MUL SWAP2 SWAP1 SWAP2 ADD ADD MSTORE PUSH2 0xE9F DUP2 PUSH2 0x2E5C JUMP JUMPDEST SWAP1 POP PUSH2 0xE0A JUMP JUMPDEST POP SWAP4 SWAP3 POP POP POP JUMP JUMPDEST PUSH1 0x4 SLOAD PUSH1 0x1 PUSH1 0x1 PUSH1 0xA0 SHL SUB AND CALLER EQ PUSH2 0xED8 JUMPI PUSH1 0x40 MLOAD PUSH3 0x461BCD PUSH1 0xE5 SHL DUP2 MSTORE PUSH1 0x4 ADD PUSH2 0x6AC SWAP1 PUSH2 0x2BCD JUMP JUMPDEST PUSH2 0xEE2 DUP2 DUP5 PUSH2 0x644 JUMP JUMPDEST PUSH1 0x1 EQ PUSH2 0xF01 JUMPI PUSH1 0x40 MLOAD PUSH3 0x461BCD PUSH1 0xE5 SHL DUP2 MSTORE PUSH1 0x4 ADD PUSH2 0x6AC SWAP1 PUSH2 0x2CC0 JUMP JUMPDEST PUSH2 0xF0A DUP4 PUSH2 0x154D JUMP JUMPDEST PUSH1 0xFF AND PUSH1 0x1 EQ PUSH2 0xF5C JUMPI PUSH1 0x40 MLOAD PUSH3 0x461BCD PUSH1 0xE5 SHL DUP2 MSTORE PUSH1 0x20 PUSH1 0x4 DUP3 ADD MSTORE PUSH1 0x1D PUSH1 0x24 DUP3 ADD MSTORE PUSH32 0x446565642063616E277420616363657074206D6F7265206F6666657273000000 PUSH1 0x44 DUP3 ADD MSTORE PUSH1 0x64 ADD PUSH2 0x6AC JUMP JUMPDEST PUSH1 0x0 DUP4 DUP2 MSTORE PUSH1 0x7 PUSH1 0x20 MSTORE PUSH1 0x40 SWAP1 KECCAK256 DUP1 SLOAD PUSH2 0x100 PUSH1 0x1 PUSH1 0xA8 SHL SUB NOT AND PUSH2 0x100 PUSH1 0x1 PUSH1 0x1 PUSH1 0xA0 SHL SUB DUP5 AND MUL OR DUP1 DUP3 SSTORE PUSH2 0xFA0 SWAP1 PUSH1 0x1 PUSH1 0xA8 SHL SWAP1 DIV PUSH4 0xFFFFFFFF AND TIMESTAMP PUSH2 0x2DCB JUMP JUMPDEST DUP2 SLOAD PUSH5 0xFFFFFFFFFF SWAP2 SWAP1 SWAP2 AND PUSH1 0x1 PUSH1 0xC8 SHL MUL PUSH5 0xFFFFFFFFFF PUSH1 0xC8 SHL NOT SWAP1 SWAP2 AND OR DUP2 SSTORE PUSH1 0x4 DUP2 ADD DUP4 SWAP1 SSTORE PUSH2 0xFD7 PUSH1 0x5 DUP3 ADD PUSH1 0x0 PUSH2 0x2349 JUMP JUMPDEST DUP1 SLOAD PUSH1 0xFF NOT AND PUSH1 0x2 OR DUP2 SSTORE PUSH1 0x40 DUP1 MLOAD DUP6 DUP2 MSTORE PUSH1 0x20 DUP2 ADD DUP6 SWAP1 MSTORE PUSH32 0x44966D4E56D70077531879040894AA85057C3BA7618964BBE117AC526A5BC94B SWAP2 ADD PUSH1 0x40 MLOAD DUP1 SWAP2 SUB SWAP1 LOG1 POP POP POP POP JUMP JUMPDEST PUSH1 0x4 SLOAD PUSH1 0x0 SWAP1 PUSH1 0x1 PUSH1 0x1 PUSH1 0xA0 SHL SUB AND CALLER EQ PUSH2 0x104E JUMPI PUSH1 0x40 MLOAD PUSH3 0x461BCD PUSH1 0xE5 SHL DUP2 MSTORE PUSH1 0x4 ADD PUSH2 0x6AC SWAP1 PUSH2 0x2BCD JUMP JUMPDEST PUSH1 0x5 DUP1 SLOAD SWAP1 PUSH1 0x0 PUSH2 0x105E DUP4 PUSH2 0x2E5C JUMP JUMPDEST SWAP1 SWAP2 SSTORE POP POP PUSH1 0x5 SLOAD PUSH1 0x0 SWAP1 DUP2 MSTORE PUSH1 0x7 PUSH1 0x20 MSTORE PUSH1 0x40 SWAP1 KECCAK256 DUP1 SLOAD PUSH4 0xFFFFFFFF PUSH1 0xA8 SHL NOT AND PUSH1 0x1 PUSH1 0xA8 SHL PUSH4 0xFFFFFFFF DUP9 AND MUL OR DUP2 SSTORE PUSH1 0x1 DUP2 ADD DUP1 SLOAD PUSH1 0x1 PUSH1 0x1 PUSH1 0xA0 SHL SUB NOT DUP2 AND PUSH1 0x1 PUSH1 0x1 PUSH1 0xA0 SHL SUB DUP12 AND SWAP1 DUP2 OR DUP4 SSTORE DUP10 SWAP3 SWAP2 PUSH1 0x1 PUSH1 0x1 PUSH1 0xA8 SHL SUB NOT AND OR PUSH1 0x1 PUSH1 0xA0 SHL DUP4 PUSH1 0x2 DUP2 GT ISZERO PUSH2 0x10E3 JUMPI PUSH4 0x4E487B71 PUSH1 0xE0 SHL PUSH1 0x0 MSTORE PUSH1 0x21 PUSH1 0x4 MSTORE PUSH1 0x24 PUSH1 0x0 REVERT JUMPDEST MUL OR SWAP1 SSTORE POP PUSH1 0x3 DUP2 ADD DUP6 SWAP1 SSTORE PUSH1 0x2 DUP2 ADD DUP5 SWAP1 SSTORE PUSH1 0x5 SLOAD PUSH1 0x40 DUP1 MLOAD PUSH1 0x20 DUP2 ADD SWAP1 SWAP2 MSTORE PUSH1 0x0 DUP2 MSTORE PUSH2 0x1116 SWAP2 DUP6 SWAP2 PUSH1 0x1 SWAP1 PUSH2 0x1BD4 JUMP JUMPDEST DUP1 SLOAD PUSH1 0xFF NOT AND PUSH1 0x1 OR DUP2 SSTORE PUSH1 0x5 SLOAD PUSH1 0x40 MLOAD PUSH1 0x1 PUSH1 0x1 PUSH1 0xA0 SHL SUB DUP11 AND SWAP1 PUSH32 0x2ED4C7B7768C6B7A36A2A860B72DCE02EFDFF532675591E9CE525280D7AAEDB6 SWAP1 PUSH2 0x1165 SWAP1 DUP12 SWAP1 DUP11 SWAP1 DUP11 SWAP1 DUP14 SWAP1 PUSH2 0x2B43 JUMP JUMPDEST PUSH1 0x40 MLOAD DUP1 SWAP2 SUB SWAP1 LOG3 POP POP PUSH1 0x5 SLOAD SWAP7 SWAP6 POP POP POP POP POP POP JUMP JUMPDEST PUSH1 0x3 SLOAD PUSH1 0x1 PUSH1 0x1 PUSH1 0xA0 SHL SUB AND CALLER EQ PUSH2 0x11A6 JUMPI PUSH1 0x40 MLOAD PUSH3 0x461BCD PUSH1 0xE5 SHL DUP2 MSTORE PUSH1 0x4 ADD PUSH2 0x6AC SWAP1 PUSH2 0x2C8B JUMP JUMPDEST PUSH2 0x11B0 PUSH1 0x0 PUSH2 0x1CDE JUMP JUMPDEST JUMP JUMPDEST PUSH1 0x3 SLOAD PUSH1 0x1 PUSH1 0x1 PUSH1 0xA0 SHL SUB AND CALLER EQ PUSH2 0x11DC JUMPI PUSH1 0x40 MLOAD PUSH3 0x461BCD PUSH1 0xE5 SHL DUP2 MSTORE PUSH1 0x4 ADD PUSH2 0x6AC SWAP1 PUSH2 0x2C8B JUMP JUMPDEST PUSH1 0x4 DUP1 SLOAD PUSH1 0x1 PUSH1 0x1 PUSH1 0xA0 SHL SUB NOT AND PUSH1 0x1 PUSH1 0x1 PUSH1 0xA0 SHL SUB SWAP3 SWAP1 SWAP3 AND SWAP2 SWAP1 SWAP2 OR SWAP1 SSTORE JUMP JUMPDEST PUSH1 0x3 SLOAD PUSH1 0x1 PUSH1 0x1 PUSH1 0xA0 SHL SUB AND CALLER EQ PUSH2 0x1228 JUMPI PUSH1 0x40 MLOAD PUSH3 0x461BCD PUSH1 0xE5 SHL DUP2 MSTORE PUSH1 0x4 ADD PUSH2 0x6AC SWAP1 PUSH2 0x2C8B JUMP JUMPDEST PUSH2 0x1231 DUP2 PUSH2 0x1D30 JUMP JUMPDEST POP JUMP JUMPDEST PUSH2 0x123F CALLER DUP4 DUP4 PUSH2 0x1D43 JUMP JUMPDEST POP POP JUMP JUMPDEST PUSH1 0x4 SLOAD PUSH1 0x1 PUSH1 0x1 PUSH1 0xA0 SHL SUB AND CALLER EQ PUSH2 0x126D JUMPI PUSH1 0x40 MLOAD PUSH3 0x461BCD PUSH1 0xE5 SHL DUP2 MSTORE PUSH1 0x4 ADD PUSH2 0x6AC SWAP1 PUSH2 0x2BCD JUMP JUMPDEST PUSH2 0x1276 DUP2 PUSH2 0x154D JUMP JUMPDEST PUSH1 0xFF AND PUSH1 0x2 EQ PUSH2 0x12E4 JUMPI PUSH1 0x40 MLOAD PUSH3 0x461BCD PUSH1 0xE5 SHL DUP2 MSTORE PUSH1 0x20 PUSH1 0x4 DUP3 ADD MSTORE PUSH1 0x33 PUSH1 0x24 DUP3 ADD MSTORE PUSH32 0x4465656420646F65736E2774206861766520616E206163636570746564206F66 PUSH1 0x44 DUP3 ADD MSTORE PUSH19 0x66657220746F2062652070616964206261636B PUSH1 0x68 SHL PUSH1 0x64 DUP3 ADD MSTORE PUSH1 0x84 ADD PUSH2 0x6AC JUMP JUMPDEST PUSH1 0x0 DUP2 DUP2 MSTORE PUSH1 0x7 PUSH1 0x20 SWAP1 DUP2 MSTORE PUSH1 0x40 SWAP2 DUP3 SWAP1 KECCAK256 DUP1 SLOAD PUSH1 0xFF NOT AND PUSH1 0x3 OR DUP2 SSTORE PUSH1 0x4 ADD SLOAD DUP3 MLOAD DUP5 DUP2 MSTORE SWAP2 DUP3 ADD MSTORE PUSH32 0xF77ABE96FBD2868E9EA14580A47E854C89DEB2B4D4B8CC87989BDF65C69639C7 SWAP2 ADD PUSH1 0x40 MLOAD DUP1 SWAP2 SUB SWAP1 LOG1 POP JUMP JUMPDEST PUSH2 0x1368 PUSH1 0x40 DUP1 MLOAD PUSH1 0x80 DUP2 ADD SWAP1 SWAP2 MSTORE PUSH1 0x0 DUP1 DUP3 MSTORE PUSH1 0x20 DUP3 ADD SWAP1 DUP2 MSTORE PUSH1 0x20 ADD PUSH1 0x0 DUP2 MSTORE PUSH1 0x20 ADD PUSH1 0x0 DUP2 MSTORE POP SWAP1 JUMP JUMPDEST PUSH1 0x0 DUP3 DUP2 MSTORE PUSH1 0x8 PUSH1 0x20 SWAP1 DUP2 MSTORE PUSH1 0x40 SWAP2 DUP3 SWAP1 KECCAK256 DUP3 MLOAD PUSH1 0x80 DUP2 ADD SWAP1 SWAP4 MSTORE PUSH1 0x3 ADD DUP1 SLOAD PUSH1 0x1 PUSH1 0x1 PUSH1 0xA0 SHL SUB DUP2 AND DUP5 MSTORE SWAP1 SWAP2 DUP4 ADD SWAP1 PUSH1 0x1 PUSH1 0xA0 SHL SWAP1 DIV PUSH1 0xFF AND PUSH1 0x2 DUP2 GT ISZERO PUSH2 0x848 JUMPI PUSH4 0x4E487B71 PUSH1 0xE0 SHL PUSH1 0x0 MSTORE PUSH1 0x21 PUSH1 0x4 MSTORE PUSH1 0x24 PUSH1 0x0 REVERT JUMPDEST PUSH1 0x4 SLOAD PUSH1 0x1 PUSH1 0x1 PUSH1 0xA0 SHL SUB AND CALLER EQ PUSH2 0x13EC JUMPI PUSH1 0x40 MLOAD PUSH3 0x461BCD PUSH1 0xE5 SHL DUP2 MSTORE PUSH1 0x4 ADD PUSH2 0x6AC SWAP1 PUSH2 0x2BCD JUMP JUMPDEST PUSH2 0x13F6 DUP2 DUP4 PUSH2 0x644 JUMP JUMPDEST PUSH1 0x1 EQ PUSH2 0x1445 JUMPI PUSH1 0x40 MLOAD PUSH3 0x461BCD PUSH1 0xE5 SHL DUP2 MSTORE PUSH1 0x20 PUSH1 0x4 DUP3 ADD MSTORE PUSH1 0x1C PUSH1 0x24 DUP3 ADD MSTORE PUSH32 0x43616C6C6572206973206E6F74207468652064656564206F776E657200000000 PUSH1 0x44 DUP3 ADD MSTORE PUSH1 0x64 ADD PUSH2 0x6AC JUMP JUMPDEST PUSH1 0x3 PUSH2 0x1450 DUP4 PUSH2 0x154D JUMP JUMPDEST PUSH1 0xFF AND LT ISZERO PUSH2 0x14A1 JUMPI PUSH1 0x40 MLOAD PUSH3 0x461BCD PUSH1 0xE5 SHL DUP2 MSTORE PUSH1 0x20 PUSH1 0x4 DUP3 ADD MSTORE PUSH1 0x19 PUSH1 0x24 DUP3 ADD MSTORE PUSH32 0x446565642063616E277420626520636C61696D65642079657400000000000000 PUSH1 0x44 DUP3 ADD MSTORE PUSH1 0x64 ADD PUSH2 0x6AC JUMP JUMPDEST PUSH1 0x0 DUP3 DUP2 MSTORE PUSH1 0x7 PUSH1 0x20 MSTORE PUSH1 0x40 SWAP1 DUP2 SWAP1 KECCAK256 DUP1 SLOAD PUSH1 0xFF NOT AND SWAP1 SSTORE MLOAD PUSH32 0xA15F537EBC49D6F6D5217F43D2C5D2B830069397BED363FDC1D811814148EC6D SWAP1 PUSH2 0xBFA SWAP1 DUP5 DUP2 MSTORE PUSH1 0x20 ADD SWAP1 JUMP JUMPDEST PUSH1 0x0 DUP2 DUP2 MSTORE PUSH1 0x7 PUSH1 0x20 SWAP1 DUP2 MSTORE PUSH1 0x40 SWAP2 DUP3 SWAP1 KECCAK256 PUSH1 0x5 ADD DUP1 SLOAD DUP4 MLOAD DUP2 DUP5 MUL DUP2 ADD DUP5 ADD SWAP1 SWAP5 MSTORE DUP1 DUP5 MSTORE PUSH1 0x60 SWAP4 SWAP3 DUP4 ADD DUP3 DUP3 DUP1 ISZERO PUSH2 0x7B6 JUMPI PUSH1 0x20 MUL DUP3 ADD SWAP2 SWAP1 PUSH1 0x0 MSTORE PUSH1 0x20 PUSH1 0x0 KECCAK256 SWAP1 JUMPDEST DUP2 SLOAD DUP2 MSTORE PUSH1 0x20 ADD SWAP1 PUSH1 0x1 ADD SWAP1 DUP1 DUP4 GT PUSH2 0x152E JUMPI POP POP POP POP POP SWAP1 POP SWAP2 SWAP1 POP JUMP JUMPDEST PUSH1 0x0 DUP2 DUP2 MSTORE PUSH1 0x7 PUSH1 0x20 MSTORE PUSH1 0x40 DUP2 KECCAK256 SLOAD PUSH1 0x1 PUSH1 0xC8 SHL SWAP1 DIV PUSH5 0xFFFFFFFFFF AND ISZERO DUP1 ISZERO SWAP1 PUSH2 0x1594 JUMPI POP PUSH1 0x0 DUP3 DUP2 MSTORE PUSH1 0x7 PUSH1 0x20 MSTORE PUSH1 0x40 SWAP1 KECCAK256 SLOAD TIMESTAMP PUSH1 0x1 PUSH1 0xC8 SHL SWAP1 SWAP2 DIV PUSH5 0xFFFFFFFFFF AND LT JUMPDEST DUP1 ISZERO PUSH2 0x15B2 JUMPI POP PUSH1 0x0 DUP3 DUP2 MSTORE PUSH1 0x7 PUSH1 0x20 MSTORE PUSH1 0x40 SWAP1 KECCAK256 SLOAD PUSH1 0xFF AND PUSH1 0x3 EQ ISZERO JUMPDEST ISZERO PUSH2 0x15BF JUMPI POP PUSH1 0x4 SWAP2 SWAP1 POP JUMP JUMPDEST POP PUSH1 0x0 SWAP1 DUP2 MSTORE PUSH1 0x7 PUSH1 0x20 MSTORE PUSH1 0x40 SWAP1 KECCAK256 SLOAD PUSH1 0xFF AND SWAP1 JUMP JUMPDEST SWAP2 SWAP1 POP JUMP JUMPDEST PUSH1 0x1 PUSH1 0x1 PUSH1 0xA0 SHL SUB DUP6 AND CALLER EQ DUP1 PUSH2 0x15F6 JUMPI POP PUSH2 0x15F6 DUP6 CALLER PUSH2 0x5A5 JUMP JUMPDEST PUSH2 0x1654 JUMPI PUSH1 0x40 MLOAD PUSH3 0x461BCD PUSH1 0xE5 SHL DUP2 MSTORE PUSH1 0x20 PUSH1 0x4 DUP3 ADD MSTORE PUSH1 0x29 PUSH1 0x24 DUP3 ADD MSTORE PUSH32 0x455243313135353A2063616C6C6572206973206E6F74206F776E6572206E6F72 PUSH1 0x44 DUP3 ADD MSTORE PUSH9 0x8185C1C1C9BDD9959 PUSH1 0xBA SHL PUSH1 0x64 DUP3 ADD MSTORE PUSH1 0x84 ADD PUSH2 0x6AC JUMP JUMPDEST PUSH2 0xC96 DUP6 DUP6 DUP6 DUP6 DUP6 PUSH2 0x1E24 JUMP JUMPDEST PUSH1 0x3 SLOAD PUSH1 0x1 PUSH1 0x1 PUSH1 0xA0 SHL SUB AND CALLER EQ PUSH2 0x168B JUMPI PUSH1 0x40 MLOAD PUSH3 0x461BCD PUSH1 0xE5 SHL DUP2 MSTORE PUSH1 0x4 ADD PUSH2 0x6AC SWAP1 PUSH2 0x2C8B JUMP JUMPDEST PUSH1 0x1 PUSH1 0x1 PUSH1 0xA0 SHL SUB DUP2 AND PUSH2 0x16F0 JUMPI PUSH1 0x40 MLOAD PUSH3 0x461BCD PUSH1 0xE5 SHL DUP2 MSTORE PUSH1 0x20 PUSH1 0x4 DUP3 ADD MSTORE PUSH1 0x26 PUSH1 0x24 DUP3 ADD MSTORE PUSH32 0x4F776E61626C653A206E6577206F776E657220697320746865207A65726F2061 PUSH1 0x44 DUP3 ADD MSTORE PUSH6 0x646472657373 PUSH1 0xD0 SHL PUSH1 0x64 DUP3 ADD MSTORE PUSH1 0x84 ADD PUSH2 0x6AC JUMP JUMPDEST PUSH2 0x1231 DUP2 PUSH2 0x1CDE JUMP JUMPDEST PUSH1 0x4 SLOAD PUSH1 0x1 PUSH1 0x1 PUSH1 0xA0 SHL SUB AND CALLER EQ PUSH2 0x1723 JUMPI PUSH1 0x40 MLOAD PUSH3 0x461BCD PUSH1 0xE5 SHL DUP2 MSTORE PUSH1 0x4 ADD PUSH2 0x6AC SWAP1 PUSH2 0x2BCD JUMP JUMPDEST PUSH1 0x0 DUP3 DUP2 MSTORE PUSH1 0x8 PUSH1 0x20 MSTORE PUSH1 0x40 SWAP1 KECCAK256 PUSH1 0x2 ADD SLOAD PUSH1 0x1 PUSH1 0x1 PUSH1 0xA0 SHL SUB DUP3 DUP2 AND SWAP2 AND EQ PUSH2 0x179B JUMPI PUSH1 0x40 MLOAD PUSH3 0x461BCD PUSH1 0xE5 SHL DUP2 MSTORE PUSH1 0x20 PUSH1 0x4 DUP3 ADD MSTORE PUSH1 0x24 DUP1 DUP3 ADD MSTORE PUSH32 0x546869732061646472657373206469646E27742063726561746520746865206F PUSH1 0x44 DUP3 ADD MSTORE PUSH4 0x333332B9 PUSH1 0xE1 SHL PUSH1 0x64 DUP3 ADD MSTORE PUSH1 0x84 ADD PUSH2 0x6AC JUMP JUMPDEST PUSH1 0x0 DUP3 DUP2 MSTORE PUSH1 0x8 PUSH1 0x20 MSTORE PUSH1 0x40 SWAP1 KECCAK256 SLOAD PUSH2 0x17B3 SWAP1 PUSH2 0x154D JUMP JUMPDEST PUSH1 0xFF AND PUSH1 0x1 EQ PUSH2 0x1814 JUMPI PUSH1 0x40 MLOAD PUSH3 0x461BCD PUSH1 0xE5 SHL DUP2 MSTORE PUSH1 0x20 PUSH1 0x4 DUP3 ADD MSTORE PUSH1 0x26 PUSH1 0x24 DUP3 ADD MSTORE PUSH32 0x43616E206F6E6C792072656D6F7665206F66666572732066726F6D206F70656E PUSH1 0x44 DUP3 ADD MSTORE PUSH6 0x204465656473 PUSH1 0xD0 SHL PUSH1 0x64 DUP3 ADD MSTORE PUSH1 0x84 ADD PUSH2 0x6AC JUMP JUMPDEST PUSH1 0x0 DUP3 DUP2 MSTORE PUSH1 0x8 PUSH1 0x20 MSTORE PUSH1 0x40 DUP1 DUP3 KECCAK256 DUP3 DUP2 SSTORE PUSH1 0x1 DUP2 ADD DUP4 SWAP1 SSTORE PUSH1 0x2 DUP2 ADD DUP1 SLOAD PUSH1 0x1 PUSH1 0x1 PUSH1 0xA0 SHL SUB NOT AND SWAP1 SSTORE PUSH1 0x3 DUP2 ADD DUP1 SLOAD PUSH1 0x1 PUSH1 0x1 PUSH1 0xA8 SHL SUB NOT AND SWAP1 SSTORE PUSH1 0x4 DUP2 ADD DUP4 SWAP1 SSTORE PUSH1 0x5 ADD SWAP2 SWAP1 SWAP2 SSTORE MLOAD PUSH32 0xC0885ADE686CF1CA700832B5B7A2F2B0759E5A483174588F940E3AC048A8F8D0 SWAP1 PUSH2 0xBFA SWAP1 DUP5 DUP2 MSTORE PUSH1 0x20 ADD SWAP1 JUMP JUMPDEST PUSH1 0x4 SLOAD PUSH1 0x1 PUSH1 0x1 PUSH1 0xA0 SHL SUB AND CALLER EQ PUSH2 0x18B9 JUMPI PUSH1 0x40 MLOAD PUSH3 0x461BCD PUSH1 0xE5 SHL DUP2 MSTORE PUSH1 0x4 ADD PUSH2 0x6AC SWAP1 PUSH2 0x2BCD JUMP JUMPDEST PUSH2 0x18C3 DUP2 DUP4 PUSH2 0x644 JUMP JUMPDEST PUSH1 0x1 EQ PUSH2 0x1912 JUMPI PUSH1 0x40 MLOAD PUSH3 0x461BCD PUSH1 0xE5 SHL DUP2 MSTORE PUSH1 0x20 PUSH1 0x4 DUP3 ADD MSTORE PUSH1 0x1C PUSH1 0x24 DUP3 ADD MSTORE PUSH32 0x43616C6C6572206973206E6F74207468652064656564206F776E657200000000 PUSH1 0x44 DUP3 ADD MSTORE PUSH1 0x64 ADD PUSH2 0x6AC JUMP JUMPDEST PUSH1 0x0 DUP3 DUP2 MSTORE PUSH1 0x7 PUSH1 0x20 MSTORE PUSH1 0x40 SWAP1 KECCAK256 SLOAD PUSH1 0xFF AND ISZERO PUSH2 0x197C JUMPI PUSH1 0x40 MLOAD PUSH3 0x461BCD PUSH1 0xE5 SHL DUP2 MSTORE PUSH1 0x20 PUSH1 0x4 DUP3 ADD MSTORE PUSH1 0x22 PUSH1 0x24 DUP3 ADD MSTORE PUSH32 0x446565642063616E2774206265206275726E6564206174207468697320737461 PUSH1 0x44 DUP3 ADD MSTORE PUSH2 0x6765 PUSH1 0xF0 SHL PUSH1 0x64 DUP3 ADD MSTORE PUSH1 0x84 ADD PUSH2 0x6AC JUMP JUMPDEST PUSH1 0x0 DUP3 DUP2 MSTORE PUSH1 0x7 PUSH1 0x20 MSTORE PUSH1 0x40 DUP2 KECCAK256 DUP1 SLOAD PUSH1 0x1 PUSH1 0x1 PUSH1 0xF0 SHL SUB NOT AND DUP2 SSTORE PUSH1 0x1 DUP2 ADD DUP1 SLOAD PUSH1 0x1 PUSH1 0x1 PUSH1 0xA8 SHL SUB NOT AND SWAP1 SSTORE PUSH1 0x2 DUP2 ADD DUP3 SWAP1 SSTORE PUSH1 0x3 DUP2 ADD DUP3 SWAP1 SSTORE PUSH1 0x4 DUP2 ADD DUP3 SWAP1 SSTORE SWAP1 PUSH2 0x19CD PUSH1 0x5 DUP4 ADD DUP3 PUSH2 0x2349 JUMP JUMPDEST POP POP PUSH2 0x123F DUP2 DUP4 PUSH1 0x1 PUSH2 0x1F41 JUMP JUMPDEST DUP2 MLOAD DUP4 MLOAD EQ PUSH2 0x1A3D JUMPI PUSH1 0x40 MLOAD PUSH3 0x461BCD PUSH1 0xE5 SHL DUP2 MSTORE PUSH1 0x20 PUSH1 0x4 DUP3 ADD MSTORE PUSH1 0x28 PUSH1 0x24 DUP3 ADD MSTORE PUSH32 0x455243313135353A2069647320616E6420616D6F756E7473206C656E67746820 PUSH1 0x44 DUP3 ADD MSTORE PUSH8 0xDAD2E6DAC2E8C6D PUSH1 0xC3 SHL PUSH1 0x64 DUP3 ADD MSTORE PUSH1 0x84 ADD PUSH2 0x6AC JUMP JUMPDEST PUSH1 0x1 PUSH1 0x1 PUSH1 0xA0 SHL SUB DUP5 AND PUSH2 0x1A63 JUMPI PUSH1 0x40 MLOAD PUSH3 0x461BCD PUSH1 0xE5 SHL DUP2 MSTORE PUSH1 0x4 ADD PUSH2 0x6AC SWAP1 PUSH2 0x2BFC JUMP JUMPDEST CALLER PUSH1 0x0 JUMPDEST DUP5 MLOAD DUP2 LT ISZERO PUSH2 0x1B66 JUMPI PUSH1 0x0 DUP6 DUP3 DUP2 MLOAD DUP2 LT PUSH2 0x1A92 JUMPI PUSH4 0x4E487B71 PUSH1 0xE0 SHL PUSH1 0x0 MSTORE PUSH1 0x32 PUSH1 0x4 MSTORE PUSH1 0x24 PUSH1 0x0 REVERT JUMPDEST PUSH1 0x20 MUL PUSH1 0x20 ADD ADD MLOAD SWAP1 POP PUSH1 0x0 DUP6 DUP4 DUP2 MLOAD DUP2 LT PUSH2 0x1ABE JUMPI PUSH4 0x4E487B71 PUSH1 0xE0 SHL PUSH1 0x0 MSTORE PUSH1 0x32 PUSH1 0x4 MSTORE PUSH1 0x24 PUSH1 0x0 REVERT JUMPDEST PUSH1 0x20 SWAP1 DUP2 MUL SWAP2 SWAP1 SWAP2 ADD DUP2 ADD MLOAD PUSH1 0x0 DUP5 DUP2 MSTORE DUP1 DUP4 MSTORE PUSH1 0x40 DUP1 DUP3 KECCAK256 PUSH1 0x1 PUSH1 0x1 PUSH1 0xA0 SHL SUB DUP15 AND DUP4 MSTORE SWAP1 SWAP4 MSTORE SWAP2 SWAP1 SWAP2 KECCAK256 SLOAD SWAP1 SWAP2 POP DUP2 DUP2 LT ISZERO PUSH2 0x1B0E JUMPI PUSH1 0x40 MLOAD PUSH3 0x461BCD PUSH1 0xE5 SHL DUP2 MSTORE PUSH1 0x4 ADD PUSH2 0x6AC SWAP1 PUSH2 0x2C41 JUMP JUMPDEST PUSH1 0x0 DUP4 DUP2 MSTORE PUSH1 0x20 DUP2 DUP2 MSTORE PUSH1 0x40 DUP1 DUP4 KECCAK256 PUSH1 0x1 PUSH1 0x1 PUSH1 0xA0 SHL SUB DUP15 DUP2 AND DUP6 MSTORE SWAP3 MSTORE DUP1 DUP4 KECCAK256 DUP6 DUP6 SUB SWAP1 SSTORE SWAP1 DUP12 AND DUP3 MSTORE DUP2 KECCAK256 DUP1 SLOAD DUP5 SWAP3 SWAP1 PUSH2 0x1B4B SWAP1 DUP5 SWAP1 PUSH2 0x2DB3 JUMP JUMPDEST SWAP3 POP POP DUP2 SWAP1 SSTORE POP POP POP POP DUP1 PUSH2 0x1B5F SWAP1 PUSH2 0x2E5C JUMP JUMPDEST SWAP1 POP PUSH2 0x1A67 JUMP JUMPDEST POP DUP5 PUSH1 0x1 PUSH1 0x1 PUSH1 0xA0 SHL SUB AND DUP7 PUSH1 0x1 PUSH1 0x1 PUSH1 0xA0 SHL SUB AND DUP3 PUSH1 0x1 PUSH1 0x1 PUSH1 0xA0 SHL SUB AND PUSH32 0x4A39DC06D4C0DBC64B70AF90FD698A233A518AA5D07E595D983B8C0526C8F7FB DUP8 DUP8 PUSH1 0x40 MLOAD PUSH2 0x1BB6 SWAP3 SWAP2 SWAP1 PUSH2 0x2B1E JUMP JUMPDEST PUSH1 0x40 MLOAD DUP1 SWAP2 SUB SWAP1 LOG4 PUSH2 0x1BCC DUP2 DUP8 DUP8 DUP8 DUP8 DUP8 PUSH2 0x20BB JUMP JUMPDEST POP POP POP POP POP POP JUMP JUMPDEST PUSH1 0x1 PUSH1 0x1 PUSH1 0xA0 SHL SUB DUP5 AND PUSH2 0x1C34 JUMPI PUSH1 0x40 MLOAD PUSH3 0x461BCD PUSH1 0xE5 SHL DUP2 MSTORE PUSH1 0x20 PUSH1 0x4 DUP3 ADD MSTORE PUSH1 0x21 PUSH1 0x24 DUP3 ADD MSTORE PUSH32 0x455243313135353A206D696E7420746F20746865207A65726F20616464726573 PUSH1 0x44 DUP3 ADD MSTORE PUSH1 0x73 PUSH1 0xF8 SHL PUSH1 0x64 DUP3 ADD MSTORE PUSH1 0x84 ADD PUSH2 0x6AC JUMP JUMPDEST CALLER PUSH2 0x1C4E DUP2 PUSH1 0x0 DUP8 PUSH2 0x1C45 DUP9 PUSH2 0x2226 JUMP JUMPDEST PUSH2 0xC96 DUP9 PUSH2 0x2226 JUMP JUMPDEST PUSH1 0x0 DUP5 DUP2 MSTORE PUSH1 0x20 DUP2 DUP2 MSTORE PUSH1 0x40 DUP1 DUP4 KECCAK256 PUSH1 0x1 PUSH1 0x1 PUSH1 0xA0 SHL SUB DUP10 AND DUP5 MSTORE SWAP1 SWAP2 MSTORE DUP2 KECCAK256 DUP1 SLOAD DUP6 SWAP3 SWAP1 PUSH2 0x1C7E SWAP1 DUP5 SWAP1 PUSH2 0x2DB3 JUMP JUMPDEST SWAP1 SWAP2 SSTORE POP POP PUSH1 0x40 DUP1 MLOAD DUP6 DUP2 MSTORE PUSH1 0x20 DUP2 ADD DUP6 SWAP1 MSTORE PUSH1 0x1 PUSH1 0x1 PUSH1 0xA0 SHL SUB DUP1 DUP9 AND SWAP3 PUSH1 0x0 SWAP3 SWAP2 DUP6 AND SWAP2 PUSH32 0xC3D58168C5AE7397731D063D5BBF3D657854427343F4C083240F7AACAA2D0F62 SWAP2 ADD PUSH1 0x40 MLOAD DUP1 SWAP2 SUB SWAP1 LOG4 PUSH2 0xC96 DUP2 PUSH1 0x0 DUP8 DUP8 DUP8 DUP8 PUSH2 0x227F JUMP JUMPDEST PUSH1 0x3 DUP1 SLOAD PUSH1 0x1 PUSH1 0x1 PUSH1 0xA0 SHL SUB DUP4 DUP2 AND PUSH1 0x1 PUSH1 0x1 PUSH1 0xA0 SHL SUB NOT DUP4 AND DUP2 OR SWAP1 SWAP4 SSTORE PUSH1 0x40 MLOAD SWAP2 AND SWAP2 SWAP1 DUP3 SWAP1 PUSH32 0x8BE0079C531659141344CD1FD0A4F28419497F9722A3DAAFE3B4186F6B6457E0 SWAP1 PUSH1 0x0 SWAP1 LOG3 POP POP JUMP JUMPDEST DUP1 MLOAD PUSH2 0x123F SWAP1 PUSH1 0x2 SWAP1 PUSH1 0x20 DUP5 ADD SWAP1 PUSH2 0x2367 JUMP JUMPDEST DUP2 PUSH1 0x1 PUSH1 0x1 PUSH1 0xA0 SHL SUB AND DUP4 PUSH1 0x1 PUSH1 0x1 PUSH1 0xA0 SHL SUB AND EQ ISZERO PUSH2 0x1DB7 JUMPI PUSH1 0x40 MLOAD PUSH3 0x461BCD PUSH1 0xE5 SHL DUP2 MSTORE PUSH1 0x20 PUSH1 0x4 DUP3 ADD MSTORE PUSH1 0x29 PUSH1 0x24 DUP3 ADD MSTORE PUSH32 0x455243313135353A2073657474696E6720617070726F76616C20737461747573 PUSH1 0x44 DUP3 ADD MSTORE PUSH9 0x103337B91039B2B633 PUSH1 0xB9 SHL PUSH1 0x64 DUP3 ADD MSTORE PUSH1 0x84 ADD PUSH2 0x6AC JUMP JUMPDEST PUSH1 0x1 PUSH1 0x1 PUSH1 0xA0 SHL SUB DUP4 DUP2 AND PUSH1 0x0 DUP2 DUP2 MSTORE PUSH1 0x1 PUSH1 0x20 SWAP1 DUP2 MSTORE PUSH1 0x40 DUP1 DUP4 KECCAK256 SWAP5 DUP8 AND DUP1 DUP5 MSTORE SWAP5 DUP3 MSTORE SWAP2 DUP3 SWAP1 KECCAK256 DUP1 SLOAD PUSH1 0xFF NOT AND DUP7 ISZERO ISZERO SWAP1 DUP2 OR SWAP1 SWAP2 SSTORE SWAP2 MLOAD SWAP2 DUP3 MSTORE PUSH32 0x17307EAB39AB6107E8899845AD3D59BD9653F200F220920489CA2B5937696C31 SWAP2 ADD PUSH1 0x40 MLOAD DUP1 SWAP2 SUB SWAP1 LOG3 POP POP POP JUMP JUMPDEST PUSH1 0x1 PUSH1 0x1 PUSH1 0xA0 SHL SUB DUP5 AND PUSH2 0x1E4A JUMPI PUSH1 0x40 MLOAD PUSH3 0x461BCD PUSH1 0xE5 SHL DUP2 MSTORE PUSH1 0x4 ADD PUSH2 0x6AC SWAP1 PUSH2 0x2BFC JUMP JUMPDEST CALLER PUSH2 0x1E5A DUP2 DUP8 DUP8 PUSH2 0x1C45 DUP9 PUSH2 0x2226 JUMP JUMPDEST PUSH1 0x0 DUP5 DUP2 MSTORE PUSH1 0x20 DUP2 DUP2 MSTORE PUSH1 0x40 DUP1 DUP4 KECCAK256 PUSH1 0x1 PUSH1 0x1 PUSH1 0xA0 SHL SUB DUP11 AND DUP5 MSTORE SWAP1 SWAP2 MSTORE SWAP1 KECCAK256 SLOAD DUP4 DUP2 LT ISZERO PUSH2 0x1E9B JUMPI PUSH1 0x40 MLOAD PUSH3 0x461BCD PUSH1 0xE5 SHL DUP2 MSTORE PUSH1 0x4 ADD PUSH2 0x6AC SWAP1 PUSH2 0x2C41 JUMP JUMPDEST PUSH1 0x0 DUP6 DUP2 MSTORE PUSH1 0x20 DUP2 DUP2 MSTORE PUSH1 0x40 DUP1 DUP4 KECCAK256 PUSH1 0x1 PUSH1 0x1 PUSH1 0xA0 SHL SUB DUP12 DUP2 AND DUP6 MSTORE SWAP3 MSTORE DUP1 DUP4 KECCAK256 DUP8 DUP6 SUB SWAP1 SSTORE SWAP1 DUP9 AND DUP3 MSTORE DUP2 KECCAK256 DUP1 SLOAD DUP7 SWAP3 SWAP1 PUSH2 0x1ED8 SWAP1 DUP5 SWAP1 PUSH2 0x2DB3 JUMP JUMPDEST SWAP1 SWAP2 SSTORE POP POP PUSH1 0x40 DUP1 MLOAD DUP7 DUP2 MSTORE PUSH1 0x20 DUP2 ADD DUP7 SWAP1 MSTORE PUSH1 0x1 PUSH1 0x1 PUSH1 0xA0 SHL SUB DUP1 DUP10 AND SWAP3 DUP11 DUP3 AND SWAP3 SWAP2 DUP7 AND SWAP2 PUSH32 0xC3D58168C5AE7397731D063D5BBF3D657854427343F4C083240F7AACAA2D0F62 SWAP2 ADD PUSH1 0x40 MLOAD DUP1 SWAP2 SUB SWAP1 LOG4 PUSH2 0x1F38 DUP3 DUP9 DUP9 DUP9 DUP9 DUP9 PUSH2 0x227F JUMP JUMPDEST POP POP POP POP POP POP POP JUMP JUMPDEST PUSH1 0x1 PUSH1 0x1 PUSH1 0xA0 SHL SUB DUP4 AND PUSH2 0x1FA3 JUMPI PUSH1 0x40 MLOAD PUSH3 0x461BCD PUSH1 0xE5 SHL DUP2 MSTORE PUSH1 0x20 PUSH1 0x4 DUP3 ADD MSTORE PUSH1 0x23 PUSH1 0x24 DUP3 ADD MSTORE PUSH32 0x455243313135353A206275726E2066726F6D20746865207A65726F2061646472 PUSH1 0x44 DUP3 ADD MSTORE PUSH3 0x657373 PUSH1 0xE8 SHL PUSH1 0x64 DUP3 ADD MSTORE PUSH1 0x84 ADD PUSH2 0x6AC JUMP JUMPDEST CALLER PUSH2 0x1FD3 DUP2 DUP6 PUSH1 0x0 PUSH2 0x1FB4 DUP8 PUSH2 0x2226 JUMP JUMPDEST PUSH2 0x1FBD DUP8 PUSH2 0x2226 JUMP JUMPDEST POP POP PUSH1 0x40 DUP1 MLOAD PUSH1 0x20 DUP2 ADD SWAP1 SWAP2 MSTORE PUSH1 0x0 SWAP1 MSTORE POP POP POP JUMP JUMPDEST PUSH1 0x0 DUP4 DUP2 MSTORE PUSH1 0x20 DUP2 DUP2 MSTORE PUSH1 0x40 DUP1 DUP4 KECCAK256 PUSH1 0x1 PUSH1 0x1 PUSH1 0xA0 SHL SUB DUP9 AND DUP5 MSTORE SWAP1 SWAP2 MSTORE SWAP1 KECCAK256 SLOAD DUP3 DUP2 LT ISZERO PUSH2 0x2050 JUMPI PUSH1 0x40 MLOAD PUSH3 0x461BCD PUSH1 0xE5 SHL DUP2 MSTORE PUSH1 0x20 PUSH1 0x4 DUP3 ADD MSTORE PUSH1 0x24 DUP1 DUP3 ADD MSTORE PUSH32 0x455243313135353A206275726E20616D6F756E7420657863656564732062616C PUSH1 0x44 DUP3 ADD MSTORE PUSH4 0x616E6365 PUSH1 0xE0 SHL PUSH1 0x64 DUP3 ADD MSTORE PUSH1 0x84 ADD PUSH2 0x6AC JUMP JUMPDEST PUSH1 0x0 DUP5 DUP2 MSTORE PUSH1 0x20 DUP2 DUP2 MSTORE PUSH1 0x40 DUP1 DUP4 KECCAK256 PUSH1 0x1 PUSH1 0x1 PUSH1 0xA0 SHL SUB DUP10 DUP2 AND DUP1 DUP7 MSTORE SWAP2 DUP5 MSTORE DUP3 DUP6 KECCAK256 DUP9 DUP8 SUB SWAP1 SSTORE DUP3 MLOAD DUP10 DUP2 MSTORE SWAP4 DUP5 ADD DUP9 SWAP1 MSTORE SWAP1 SWAP3 SWAP1 DUP7 AND SWAP2 PUSH32 0xC3D58168C5AE7397731D063D5BBF3D657854427343F4C083240F7AACAA2D0F62 SWAP2 ADD PUSH1 0x40 MLOAD DUP1 SWAP2 SUB SWAP1 LOG4 POP POP POP POP POP JUMP JUMPDEST PUSH1 0x1 PUSH1 0x1 PUSH1 0xA0 SHL SUB DUP5 AND EXTCODESIZE ISZERO PUSH2 0x1BCC JUMPI PUSH1 0x40 MLOAD PUSH4 0xBC197C81 PUSH1 0xE0 SHL DUP2 MSTORE PUSH1 0x1 PUSH1 0x1 PUSH1 0xA0 SHL SUB DUP6 AND SWAP1 PUSH4 0xBC197C81 SWAP1 PUSH2 0x20FF SWAP1 DUP10 SWAP1 DUP10 SWAP1 DUP9 SWAP1 DUP9 SWAP1 DUP9 SWAP1 PUSH1 0x4 ADD PUSH2 0x2A24 JUMP JUMPDEST PUSH1 0x20 PUSH1 0x40 MLOAD DUP1 DUP4 SUB DUP2 PUSH1 0x0 DUP8 DUP1 EXTCODESIZE ISZERO DUP1 ISZERO PUSH2 0x2119 JUMPI PUSH1 0x0 DUP1 REVERT JUMPDEST POP GAS CALL SWAP3 POP POP POP DUP1 ISZERO PUSH2 0x2149 JUMPI POP PUSH1 0x40 DUP1 MLOAD PUSH1 0x1F RETURNDATASIZE SWAP1 DUP2 ADD PUSH1 0x1F NOT AND DUP3 ADD SWAP1 SWAP3 MSTORE PUSH2 0x2146 SWAP2 DUP2 ADD SWAP1 PUSH2 0x28A9 JUMP JUMPDEST PUSH1 0x1 JUMPDEST PUSH2 0x21F6 JUMPI PUSH2 0x2155 PUSH2 0x2EA3 JUMP JUMPDEST DUP1 PUSH4 0x8C379A0 EQ ISZERO PUSH2 0x218F JUMPI POP PUSH2 0x216A PUSH2 0x2EBB JUMP JUMPDEST DUP1 PUSH2 0x2175 JUMPI POP PUSH2 0x2191 JUMP JUMPDEST DUP1 PUSH1 0x40 MLOAD PUSH3 0x461BCD PUSH1 0xE5 SHL DUP2 MSTORE PUSH1 0x4 ADD PUSH2 0x6AC SWAP2 SWAP1 PUSH2 0x2B72 JUMP JUMPDEST POP JUMPDEST PUSH1 0x40 MLOAD PUSH3 0x461BCD PUSH1 0xE5 SHL DUP2 MSTORE PUSH1 0x20 PUSH1 0x4 DUP3 ADD MSTORE PUSH1 0x34 PUSH1 0x24 DUP3 ADD MSTORE PUSH32 0x455243313135353A207472616E7366657220746F206E6F6E2045524331313535 PUSH1 0x44 DUP3 ADD MSTORE PUSH20 0x2932B1B2B4BB32B91034B6B83632B6B2B73A32B9 PUSH1 0x61 SHL PUSH1 0x64 DUP3 ADD MSTORE PUSH1 0x84 ADD PUSH2 0x6AC JUMP JUMPDEST PUSH1 0x1 PUSH1 0x1 PUSH1 0xE0 SHL SUB NOT DUP2 AND PUSH4 0xBC197C81 PUSH1 0xE0 SHL EQ PUSH2 0x1F38 JUMPI PUSH1 0x40 MLOAD PUSH3 0x461BCD PUSH1 0xE5 SHL DUP2 MSTORE PUSH1 0x4 ADD PUSH2 0x6AC SWAP1 PUSH2 0x2B85 JUMP JUMPDEST PUSH1 0x40 DUP1 MLOAD PUSH1 0x1 DUP1 DUP3 MSTORE DUP2 DUP4 ADD SWAP1 SWAP3 MSTORE PUSH1 0x60 SWAP2 PUSH1 0x0 SWAP2 SWAP1 PUSH1 0x20 DUP1 DUP4 ADD SWAP1 DUP1 CALLDATASIZE DUP4 CALLDATACOPY ADD SWAP1 POP POP SWAP1 POP DUP3 DUP2 PUSH1 0x0 DUP2 MLOAD DUP2 LT PUSH2 0x226E JUMPI PUSH4 0x4E487B71 PUSH1 0xE0 SHL PUSH1 0x0 MSTORE PUSH1 0x32 PUSH1 0x4 MSTORE PUSH1 0x24 PUSH1 0x0 REVERT JUMPDEST PUSH1 0x20 SWAP1 DUP2 MUL SWAP2 SWAP1 SWAP2 ADD ADD MSTORE SWAP3 SWAP2 POP POP JUMP JUMPDEST PUSH1 0x1 PUSH1 0x1 PUSH1 0xA0 SHL SUB DUP5 AND EXTCODESIZE ISZERO PUSH2 0x1BCC JUMPI PUSH1 0x40 MLOAD PUSH4 0xF23A6E61 PUSH1 0xE0 SHL DUP2 MSTORE PUSH1 0x1 PUSH1 0x1 PUSH1 0xA0 SHL SUB DUP6 AND SWAP1 PUSH4 0xF23A6E61 SWAP1 PUSH2 0x22C3 SWAP1 DUP10 SWAP1 DUP10 SWAP1 DUP9 SWAP1 DUP9 SWAP1 DUP9 SWAP1 PUSH1 0x4 ADD PUSH2 0x2A82 JUMP JUMPDEST PUSH1 0x20 PUSH1 0x40 MLOAD DUP1 DUP4 SUB DUP2 PUSH1 0x0 DUP8 DUP1 EXTCODESIZE ISZERO DUP1 ISZERO PUSH2 0x22DD JUMPI PUSH1 0x0 DUP1 REVERT JUMPDEST POP GAS CALL SWAP3 POP POP POP DUP1 ISZERO PUSH2 0x230D JUMPI POP PUSH1 0x40 DUP1 MLOAD PUSH1 0x1F RETURNDATASIZE SWAP1 DUP2 ADD PUSH1 0x1F NOT AND DUP3 ADD SWAP1 SWAP3 MSTORE PUSH2 0x230A SWAP2 DUP2 ADD SWAP1 PUSH2 0x28A9 JUMP JUMPDEST PUSH1 0x1 JUMPDEST PUSH2 0x2319 JUMPI PUSH2 0x2155 PUSH2 0x2EA3 JUMP JUMPDEST PUSH1 0x1 PUSH1 0x1 PUSH1 0xE0 SHL SUB NOT DUP2 AND PUSH4 0xF23A6E61 PUSH1 0xE0 SHL EQ PUSH2 0x1F38 JUMPI PUSH1 0x40 MLOAD PUSH3 0x461BCD PUSH1 0xE5 SHL DUP2 MSTORE PUSH1 0x4 ADD PUSH2 0x6AC SWAP1 PUSH2 0x2B85 JUMP JUMPDEST POP DUP1 SLOAD PUSH1 0x0 DUP3 SSTORE SWAP1 PUSH1 0x0 MSTORE PUSH1 0x20 PUSH1 0x0 KECCAK256 SWAP1 DUP2 ADD SWAP1 PUSH2 0x1231 SWAP2 SWAP1 PUSH2 0x23EB JUMP JUMPDEST DUP3 DUP1 SLOAD PUSH2 0x2373 SWAP1 PUSH2 0x2DF4 JUMP JUMPDEST SWAP1 PUSH1 0x0 MSTORE PUSH1 0x20 PUSH1 0x0 KECCAK256 SWAP1 PUSH1 0x1F ADD PUSH1 0x20 SWAP1 DIV DUP2 ADD SWAP3 DUP3 PUSH2 0x2395 JUMPI PUSH1 0x0 DUP6 SSTORE PUSH2 0x23DB JUMP JUMPDEST DUP3 PUSH1 0x1F LT PUSH2 0x23AE JUMPI DUP1 MLOAD PUSH1 0xFF NOT AND DUP4 DUP1 ADD OR DUP6 SSTORE PUSH2 0x23DB JUMP JUMPDEST DUP3 DUP1 ADD PUSH1 0x1 ADD DUP6 SSTORE DUP3 ISZERO PUSH2 0x23DB JUMPI SWAP2 DUP3 ADD JUMPDEST DUP3 DUP2 GT ISZERO PUSH2 0x23DB JUMPI DUP3 MLOAD DUP3 SSTORE SWAP2 PUSH1 0x20 ADD SWAP2 SWAP1 PUSH1 0x1 ADD SWAP1 PUSH2 0x23C0 JUMP JUMPDEST POP PUSH2 0x23E7 SWAP3 SWAP2 POP PUSH2 0x23EB JUMP JUMPDEST POP SWAP1 JUMP JUMPDEST JUMPDEST DUP1 DUP3 GT ISZERO PUSH2 0x23E7 JUMPI PUSH1 0x0 DUP2 SSTORE PUSH1 0x1 ADD PUSH2 0x23EC JUMP JUMPDEST PUSH1 0x0 PUSH8 0xFFFFFFFFFFFFFFFF DUP4 GT ISZERO PUSH2 0x241A JUMPI PUSH2 0x241A PUSH2 0x2E8D JUMP JUMPDEST PUSH1 0x40 MLOAD PUSH2 0x2431 PUSH1 0x1F DUP6 ADD PUSH1 0x1F NOT AND PUSH1 0x20 ADD DUP3 PUSH2 0x2E2F JUMP JUMPDEST DUP1 SWAP2 POP DUP4 DUP2 MSTORE DUP5 DUP5 DUP5 ADD GT ISZERO PUSH2 0x2446 JUMPI PUSH1 0x0 DUP1 REVERT JUMPDEST DUP4 DUP4 PUSH1 0x20 DUP4 ADD CALLDATACOPY PUSH1 0x0 PUSH1 0x20 DUP6 DUP4 ADD ADD MSTORE POP SWAP4 SWAP3 POP POP POP JUMP JUMPDEST DUP1 CALLDATALOAD PUSH1 0x1 PUSH1 0x1 PUSH1 0xA0 SHL SUB DUP2 AND DUP2 EQ PUSH2 0x15D5 JUMPI PUSH1 0x0 DUP1 REVERT JUMPDEST PUSH1 0x0 DUP3 PUSH1 0x1F DUP4 ADD SLT PUSH2 0x2485 JUMPI DUP1 DUP2 REVERT JUMPDEST DUP2 CALLDATALOAD PUSH1 0x20 PUSH2 0x2492 DUP3 PUSH2 0x2D8F JUMP JUMPDEST PUSH1 0x40 MLOAD PUSH2 0x249F DUP3 DUP3 PUSH2 0x2E2F JUMP JUMPDEST DUP4 DUP2 MSTORE DUP3 DUP2 ADD SWAP2 POP DUP6 DUP4 ADD PUSH1 0x5 DUP6 SWAP1 SHL DUP8 ADD DUP5 ADD DUP9 LT ISZERO PUSH2 0x24BE JUMPI DUP6 DUP7 REVERT JUMPDEST DUP6 JUMPDEST DUP6 DUP2 LT ISZERO PUSH2 0x24DC JUMPI DUP2 CALLDATALOAD DUP5 MSTORE SWAP3 DUP5 ADD SWAP3 SWAP1 DUP5 ADD SWAP1 PUSH1 0x1 ADD PUSH2 0x24C0 JUMP JUMPDEST POP SWAP1 SWAP8 SWAP7 POP POP POP POP POP POP POP JUMP JUMPDEST PUSH1 0x0 DUP3 PUSH1 0x1F DUP4 ADD SLT PUSH2 0x24F9 JUMPI DUP1 DUP2 REVERT JUMPDEST PUSH2 0x2508 DUP4 DUP4 CALLDATALOAD PUSH1 0x20 DUP6 ADD PUSH2 0x2400 JUMP JUMPDEST SWAP4 SWAP3 POP POP POP JUMP JUMPDEST PUSH1 0x0 PUSH1 0x20 DUP3 DUP5 SUB SLT ISZERO PUSH2 0x2520 JUMPI DUP1 DUP2 REVERT JUMPDEST PUSH2 0x2508 DUP3 PUSH2 0x245E JUMP JUMPDEST PUSH1 0x0 DUP1 PUSH1 0x40 DUP4 DUP6 SUB SLT ISZERO PUSH2 0x253B JUMPI DUP1 DUP2 REVERT JUMPDEST PUSH2 0x2544 DUP4 PUSH2 0x245E JUMP JUMPDEST SWAP2 POP PUSH2 0x2552 PUSH1 0x20 DUP5 ADD PUSH2 0x245E JUMP JUMPDEST SWAP1 POP SWAP3 POP SWAP3 SWAP1 POP JUMP JUMPDEST PUSH1 0x0 DUP1 PUSH1 0x0 DUP1 PUSH1 0x0 PUSH1 0xA0 DUP7 DUP9 SUB SLT ISZERO PUSH2 0x2572 JUMPI DUP1 DUP2 REVERT JUMPDEST PUSH2 0x257B DUP7 PUSH2 0x245E JUMP JUMPDEST SWAP5 POP PUSH2 0x2589 PUSH1 0x20 DUP8 ADD PUSH2 0x245E JUMP JUMPDEST SWAP4 POP PUSH1 0x40 DUP7 ADD CALLDATALOAD PUSH8 0xFFFFFFFFFFFFFFFF DUP1 DUP3 GT ISZERO PUSH2 0x25A5 JUMPI DUP3 DUP4 REVERT JUMPDEST PUSH2 0x25B1 DUP10 DUP4 DUP11 ADD PUSH2 0x2475 JUMP JUMPDEST SWAP5 POP PUSH1 0x60 DUP9 ADD CALLDATALOAD SWAP2 POP DUP1 DUP3 GT ISZERO PUSH2 0x25C6 JUMPI DUP3 DUP4 REVERT JUMPDEST PUSH2 0x25D2 DUP10 DUP4 DUP11 ADD PUSH2 0x2475 JUMP JUMPDEST SWAP4 POP PUSH1 0x80 DUP9 ADD CALLDATALOAD SWAP2 POP DUP1 DUP3 GT ISZERO PUSH2 0x25E7 JUMPI DUP3 DUP4 REVERT JUMPDEST POP PUSH2 0x25F4 DUP9 DUP3 DUP10 ADD PUSH2 0x24E9 JUMP JUMPDEST SWAP2 POP POP SWAP3 SWAP6 POP SWAP3 SWAP6 SWAP1 SWAP4 POP JUMP JUMPDEST PUSH1 0x0 DUP1 PUSH1 0x0 DUP1 PUSH1 0x0 PUSH1 0xA0 DUP7 DUP9 SUB SLT ISZERO PUSH2 0x2618 JUMPI DUP1 DUP2 REVERT JUMPDEST PUSH2 0x2621 DUP7 PUSH2 0x245E JUMP JUMPDEST SWAP5 POP PUSH2 0x262F PUSH1 0x20 DUP8 ADD PUSH2 0x245E JUMP JUMPDEST SWAP4 POP PUSH1 0x40 DUP7 ADD CALLDATALOAD SWAP3 POP PUSH1 0x60 DUP7 ADD CALLDATALOAD SWAP2 POP PUSH1 0x80 DUP7 ADD CALLDATALOAD PUSH8 0xFFFFFFFFFFFFFFFF DUP2 GT ISZERO PUSH2 0x2658 JUMPI DUP2 DUP3 REVERT JUMPDEST PUSH2 0x25F4 DUP9 DUP3 DUP10 ADD PUSH2 0x24E9 JUMP JUMPDEST PUSH1 0x0 DUP1 PUSH1 0x40 DUP4 DUP6 SUB SLT ISZERO PUSH2 0x2676 JUMPI DUP2 DUP3 REVERT JUMPDEST PUSH2 0x267F DUP4 PUSH2 0x245E JUMP JUMPDEST SWAP2 POP PUSH1 0x20 DUP4 ADD CALLDATALOAD DUP1 ISZERO ISZERO DUP2 EQ PUSH2 0x2693 JUMPI DUP2 DUP3 REVERT JUMPDEST DUP1 SWAP2 POP POP SWAP3 POP SWAP3 SWAP1 POP JUMP JUMPDEST PUSH1 0x0 DUP1 PUSH1 0x0 DUP1 PUSH1 0x0 DUP1 PUSH1 0xC0 DUP8 DUP10 SUB SLT ISZERO PUSH2 0x26B6 JUMPI DUP1 DUP2 REVERT JUMPDEST PUSH2 0x26BF DUP8 PUSH2 0x245E JUMP JUMPDEST SWAP6 POP PUSH1 0x20 DUP8 ADD CALLDATALOAD PUSH1 0x3 DUP2 LT PUSH2 0x26D2 JUMPI DUP2 DUP3 REVERT JUMPDEST SWAP5 POP PUSH1 0x40 DUP8 ADD CALLDATALOAD PUSH4 0xFFFFFFFF DUP2 AND DUP2 EQ PUSH2 0x26EA JUMPI DUP2 DUP3 REVERT JUMPDEST SWAP4 POP PUSH1 0x60 DUP8 ADD CALLDATALOAD SWAP3 POP PUSH1 0x80 DUP8 ADD CALLDATALOAD SWAP2 POP PUSH2 0x2706 PUSH1 0xA0 DUP9 ADD PUSH2 0x245E JUMP JUMPDEST SWAP1 POP SWAP3 SWAP6 POP SWAP3 SWAP6 POP SWAP3 SWAP6 JUMP JUMPDEST PUSH1 0x0 DUP1 PUSH1 0x40 DUP4 DUP6 SUB SLT ISZERO PUSH2 0x2724 JUMPI DUP2 DUP3 REVERT JUMPDEST PUSH2 0x272D DUP4 PUSH2 0x245E JUMP JUMPDEST SWAP5 PUSH1 0x20 SWAP4 SWAP1 SWAP4 ADD CALLDATALOAD SWAP4 POP POP POP JUMP JUMPDEST PUSH1 0x0 DUP1 PUSH1 0x0 DUP1 PUSH1 0x0 PUSH1 0xA0 DUP7 DUP9 SUB SLT ISZERO PUSH2 0x2752 JUMPI DUP3 DUP4 REVERT JUMPDEST PUSH2 0x275B DUP7 PUSH2 0x245E JUMP JUMPDEST SWAP5 POP PUSH1 0x20 DUP7 ADD CALLDATALOAD SWAP4 POP PUSH2 0x2770 PUSH1 0x40 DUP8 ADD PUSH2 0x245E JUMP JUMPDEST SWAP5 SWAP8 SWAP4 SWAP7 POP SWAP4 SWAP5 PUSH1 0x60 DUP2 ADD CALLDATALOAD SWAP5 POP PUSH1 0x80 ADD CALLDATALOAD SWAP3 SWAP2 POP POP JUMP JUMPDEST PUSH1 0x0 DUP1 PUSH1 0x40 DUP4 DUP6 SUB SLT ISZERO PUSH2 0x279A JUMPI DUP2 DUP3 REVERT JUMPDEST DUP3 CALLDATALOAD PUSH8 0xFFFFFFFFFFFFFFFF DUP1 DUP3 GT ISZERO PUSH2 0x27B1 JUMPI DUP4 DUP5 REVERT JUMPDEST DUP2 DUP6 ADD SWAP2 POP DUP6 PUSH1 0x1F DUP4 ADD SLT PUSH2 0x27C4 JUMPI DUP4 DUP5 REVERT JUMPDEST DUP2 CALLDATALOAD PUSH1 0x20 PUSH2 0x27D1 DUP3 PUSH2 0x2D8F JUMP JUMPDEST PUSH1 0x40 MLOAD PUSH2 0x27DE DUP3 DUP3 PUSH2 0x2E2F JUMP JUMPDEST DUP4 DUP2 MSTORE DUP3 DUP2 ADD SWAP2 POP DUP6 DUP4 ADD PUSH1 0x5 DUP6 SWAP1 SHL DUP8 ADD DUP5 ADD DUP12 LT ISZERO PUSH2 0x27FD JUMPI DUP9 DUP10 REVERT JUMPDEST DUP9 SWAP7 POP JUMPDEST DUP5 DUP8 LT ISZERO PUSH2 0x2826 JUMPI PUSH2 0x2812 DUP2 PUSH2 0x245E JUMP JUMPDEST DUP4 MSTORE PUSH1 0x1 SWAP7 SWAP1 SWAP7 ADD SWAP6 SWAP2 DUP4 ADD SWAP2 DUP4 ADD PUSH2 0x2801 JUMP JUMPDEST POP SWAP7 POP POP DUP7 ADD CALLDATALOAD SWAP3 POP POP DUP1 DUP3 GT ISZERO PUSH2 0x283C JUMPI DUP3 DUP4 REVERT JUMPDEST POP PUSH2 0x2849 DUP6 DUP3 DUP7 ADD PUSH2 0x2475 JUMP JUMPDEST SWAP2 POP POP SWAP3 POP SWAP3 SWAP1 POP JUMP JUMPDEST PUSH1 0x0 PUSH1 0x20 DUP3 DUP5 SUB SLT ISZERO PUSH2 0x2864 JUMPI DUP1 DUP2 REVERT JUMPDEST POP CALLDATALOAD SWAP2 SWAP1 POP JUMP JUMPDEST PUSH1 0x0 DUP1 PUSH1 0x40 DUP4 DUP6 SUB SLT ISZERO PUSH2 0x287D JUMPI DUP2 DUP3 REVERT JUMPDEST DUP3 CALLDATALOAD SWAP2 POP PUSH2 0x2552 PUSH1 0x20 DUP5 ADD PUSH2 0x245E JUMP JUMPDEST PUSH1 0x0 PUSH1 0x20 DUP3 DUP5 SUB SLT ISZERO PUSH2 0x289E JUMPI DUP1 DUP2 REVERT JUMPDEST DUP2 CALLDATALOAD PUSH2 0x2508 DUP2 PUSH2 0x2F45 JUMP JUMPDEST PUSH1 0x0 PUSH1 0x20 DUP3 DUP5 SUB SLT ISZERO PUSH2 0x28BA JUMPI DUP1 DUP2 REVERT JUMPDEST DUP2 MLOAD PUSH2 0x2508 DUP2 PUSH2 0x2F45 JUMP JUMPDEST PUSH1 0x0 PUSH1 0x20 DUP3 DUP5 SUB SLT ISZERO PUSH2 0x28D6 JUMPI DUP1 DUP2 REVERT JUMPDEST DUP2 CALLDATALOAD PUSH8 0xFFFFFFFFFFFFFFFF DUP2 GT ISZERO PUSH2 0x28EC JUMPI DUP2 DUP3 REVERT JUMPDEST DUP3 ADD PUSH1 0x1F DUP2 ADD DUP5 SGT PUSH2 0x28FC JUMPI DUP2 DUP3 REVERT JUMPDEST PUSH2 0x290B DUP5 DUP3 CALLDATALOAD PUSH1 0x20 DUP5 ADD PUSH2 0x2400 JUMP JUMPDEST SWAP5 SWAP4 POP POP POP POP JUMP JUMPDEST PUSH1 0x0 DUP1 PUSH1 0x0 PUSH1 0x60 DUP5 DUP7 SUB SLT ISZERO PUSH2 0x2927 JUMPI DUP1 DUP2 REVERT JUMPDEST DUP4 CALLDATALOAD SWAP3 POP PUSH1 0x20 DUP5 ADD CALLDATALOAD SWAP2 POP PUSH2 0x293E PUSH1 0x40 DUP6 ADD PUSH2 0x245E JUMP JUMPDEST SWAP1 POP SWAP3 POP SWAP3 POP SWAP3 JUMP JUMPDEST PUSH1 0x0 DUP2 MLOAD DUP1 DUP5 MSTORE PUSH1 0x20 DUP1 DUP6 ADD SWAP5 POP DUP1 DUP5 ADD DUP4 JUMPDEST DUP4 DUP2 LT ISZERO PUSH2 0x2976 JUMPI DUP2 MLOAD DUP8 MSTORE SWAP6 DUP3 ADD SWAP6 SWAP1 DUP3 ADD SWAP1 PUSH1 0x1 ADD PUSH2 0x295A JUMP JUMPDEST POP SWAP5 SWAP6 SWAP5 POP POP POP POP POP JUMP JUMPDEST PUSH1 0x0 DUP2 MLOAD DUP1 DUP5 MSTORE DUP2 JUMPDEST DUP2 DUP2 LT ISZERO PUSH2 0x29A6 JUMPI PUSH1 0x20 DUP2 DUP6 ADD DUP2 ADD MLOAD DUP7 DUP4 ADD DUP3 ADD MSTORE ADD PUSH2 0x298A JUMP JUMPDEST DUP2 DUP2 GT ISZERO PUSH2 0x29B7 JUMPI DUP3 PUSH1 0x20 DUP4 DUP8 ADD ADD MSTORE JUMPDEST POP PUSH1 0x1F ADD PUSH1 0x1F NOT AND SWAP3 SWAP1 SWAP3 ADD PUSH1 0x20 ADD SWAP3 SWAP2 POP POP JUMP JUMPDEST PUSH1 0x3 DUP2 LT PUSH2 0x29EA JUMPI PUSH4 0x4E487B71 PUSH1 0xE0 SHL PUSH1 0x0 MSTORE PUSH1 0x21 PUSH1 0x4 MSTORE PUSH1 0x24 PUSH1 0x0 REVERT JUMPDEST SWAP1 MSTORE JUMP JUMPDEST DUP1 MLOAD PUSH1 0x1 PUSH1 0x1 PUSH1 0xA0 SHL SUB AND DUP3 MSTORE PUSH1 0x20 DUP1 DUP3 ADD MLOAD SWAP1 PUSH2 0x2A0E SWAP1 DUP5 ADD DUP3 PUSH2 0x29CC JUMP JUMPDEST POP PUSH1 0x40 DUP2 DUP2 ADD MLOAD SWAP1 DUP4 ADD MSTORE PUSH1 0x60 SWAP1 DUP2 ADD MLOAD SWAP2 ADD MSTORE JUMP JUMPDEST PUSH1 0x1 PUSH1 0x1 PUSH1 0xA0 SHL SUB DUP7 DUP2 AND DUP3 MSTORE DUP6 AND PUSH1 0x20 DUP3 ADD MSTORE PUSH1 0xA0 PUSH1 0x40 DUP3 ADD DUP2 SWAP1 MSTORE PUSH1 0x0 SWAP1 PUSH2 0x2A50 SWAP1 DUP4 ADD DUP7 PUSH2 0x2947 JUMP JUMPDEST DUP3 DUP2 SUB PUSH1 0x60 DUP5 ADD MSTORE PUSH2 0x2A62 DUP2 DUP7 PUSH2 0x2947 JUMP JUMPDEST SWAP1 POP DUP3 DUP2 SUB PUSH1 0x80 DUP5 ADD MSTORE PUSH2 0x2A76 DUP2 DUP6 PUSH2 0x2981 JUMP JUMPDEST SWAP9 SWAP8 POP POP POP POP POP POP POP POP JUMP JUMPDEST PUSH1 0x1 PUSH1 0x1 PUSH1 0xA0 SHL SUB DUP7 DUP2 AND DUP3 MSTORE DUP6 AND PUSH1 0x20 DUP3 ADD MSTORE PUSH1 0x40 DUP2 ADD DUP5 SWAP1 MSTORE PUSH1 0x60 DUP2 ADD DUP4 SWAP1 MSTORE PUSH1 0xA0 PUSH1 0x80 DUP3 ADD DUP2 SWAP1 MSTORE PUSH1 0x0 SWAP1 PUSH2 0x2ABC SWAP1 DUP4 ADD DUP5 PUSH2 0x2981 JUMP JUMPDEST SWAP8 SWAP7 POP POP POP POP POP POP POP JUMP JUMPDEST PUSH1 0x20 DUP1 DUP3 MSTORE DUP3 MLOAD DUP3 DUP3 ADD DUP2 SWAP1 MSTORE PUSH1 0x0 SWAP2 SWAP1 DUP5 DUP3 ADD SWAP1 PUSH1 0x40 DUP6 ADD SWAP1 DUP5 JUMPDEST DUP2 DUP2 LT ISZERO PUSH2 0x2AFF JUMPI DUP4 MLOAD DUP4 MSTORE SWAP3 DUP5 ADD SWAP3 SWAP2 DUP5 ADD SWAP2 PUSH1 0x1 ADD PUSH2 0x2AE3 JUMP JUMPDEST POP SWAP1 SWAP7 SWAP6 POP POP POP POP POP POP JUMP JUMPDEST PUSH1 0x20 DUP2 MSTORE PUSH1 0x0 PUSH2 0x2508 PUSH1 0x20 DUP4 ADD DUP5 PUSH2 0x2947 JUMP JUMPDEST PUSH1 0x40 DUP2 MSTORE PUSH1 0x0 PUSH2 0x2B31 PUSH1 0x40 DUP4 ADD DUP6 PUSH2 0x2947 JUMP JUMPDEST DUP3 DUP2 SUB PUSH1 0x20 DUP5 ADD MSTORE PUSH2 0xA23 DUP2 DUP6 PUSH2 0x2947 JUMP JUMPDEST PUSH1 0x80 DUP2 ADD PUSH2 0x2B51 DUP3 DUP8 PUSH2 0x29CC JUMP JUMPDEST DUP5 PUSH1 0x20 DUP4 ADD MSTORE DUP4 PUSH1 0x40 DUP4 ADD MSTORE PUSH4 0xFFFFFFFF DUP4 AND PUSH1 0x60 DUP4 ADD MSTORE SWAP6 SWAP5 POP POP POP POP POP JUMP JUMPDEST PUSH1 0x20 DUP2 MSTORE PUSH1 0x0 PUSH2 0x2508 PUSH1 0x20 DUP4 ADD DUP5 PUSH2 0x2981 JUMP JUMPDEST PUSH1 0x20 DUP1 DUP3 MSTORE PUSH1 0x28 SWAP1 DUP3 ADD MSTORE PUSH32 0x455243313135353A204552433131353552656365697665722072656A65637465 PUSH1 0x40 DUP3 ADD MSTORE PUSH8 0x6420746F6B656E73 PUSH1 0xC0 SHL PUSH1 0x60 DUP3 ADD MSTORE PUSH1 0x80 ADD SWAP1 JUMP JUMPDEST PUSH1 0x20 DUP1 DUP3 MSTORE PUSH1 0x15 SWAP1 DUP3 ADD MSTORE PUSH21 0x21B0B63632B91034B9903737BA103A343290282BA7 PUSH1 0x59 SHL PUSH1 0x40 DUP3 ADD MSTORE PUSH1 0x60 ADD SWAP1 JUMP JUMPDEST PUSH1 0x20 DUP1 DUP3 MSTORE PUSH1 0x25 SWAP1 DUP3 ADD MSTORE PUSH32 0x455243313135353A207472616E7366657220746F20746865207A65726F206164 PUSH1 0x40 DUP3 ADD MSTORE PUSH5 0x6472657373 PUSH1 0xD8 SHL PUSH1 0x60 DUP3 ADD MSTORE PUSH1 0x80 ADD SWAP1 JUMP JUMPDEST PUSH1 0x20 DUP1 DUP3 MSTORE PUSH1 0x2A SWAP1 DUP3 ADD MSTORE PUSH32 0x455243313135353A20696E73756666696369656E742062616C616E636520666F PUSH1 0x40 DUP3 ADD MSTORE PUSH10 0x39103A3930B739B332B9 PUSH1 0xB1 SHL PUSH1 0x60 DUP3 ADD MSTORE PUSH1 0x80 ADD SWAP1 JUMP JUMPDEST PUSH1 0x20 DUP1 DUP3 MSTORE DUP2 DUP2 ADD MSTORE PUSH32 0x4F776E61626C653A2063616C6C6572206973206E6F7420746865206F776E6572 PUSH1 0x40 DUP3 ADD MSTORE PUSH1 0x60 ADD SWAP1 JUMP JUMPDEST PUSH1 0x20 DUP1 DUP3 MSTORE PUSH1 0x25 SWAP1 DUP3 ADD MSTORE PUSH32 0x546865206465656420646F65736E27742062656C6F6E6720746F207468652063 PUSH1 0x40 DUP3 ADD MSTORE PUSH5 0x30B63632B9 PUSH1 0xD9 SHL PUSH1 0x60 DUP3 ADD MSTORE PUSH1 0x80 ADD SWAP1 JUMP JUMPDEST PUSH1 0x80 DUP2 ADD PUSH2 0x6D8 DUP3 DUP5 PUSH2 0x29EE JUMP JUMPDEST DUP5 DUP2 MSTORE PUSH1 0x20 DUP2 ADD DUP5 SWAP1 MSTORE PUSH1 0x1 PUSH1 0x1 PUSH1 0xA0 SHL SUB DUP4 AND PUSH1 0x40 DUP3 ADD MSTORE PUSH1 0xE0 DUP2 ADD PUSH2 0xA23 PUSH1 0x60 DUP4 ADD DUP5 PUSH2 0x29EE JUMP JUMPDEST PUSH1 0xFF DUP8 AND DUP2 MSTORE PUSH1 0x1 PUSH1 0x1 PUSH1 0xA0 SHL SUB DUP7 AND PUSH1 0x20 DUP3 ADD MSTORE PUSH4 0xFFFFFFFF DUP6 AND PUSH1 0x40 DUP3 ADD MSTORE PUSH5 0xFFFFFFFFFF DUP5 AND PUSH1 0x60 DUP3 ADD MSTORE PUSH2 0x120 DUP2 ADD PUSH2 0x2D7D PUSH1 0x80 DUP4 ADD DUP6 PUSH2 0x29EE JUMP JUMPDEST DUP3 PUSH2 0x100 DUP4 ADD MSTORE SWAP8 SWAP7 POP POP POP POP POP POP POP JUMP JUMPDEST PUSH1 0x0 PUSH8 0xFFFFFFFFFFFFFFFF DUP3 GT ISZERO PUSH2 0x2DA9 JUMPI PUSH2 0x2DA9 PUSH2 0x2E8D JUMP JUMPDEST POP PUSH1 0x5 SHL PUSH1 0x20 ADD SWAP1 JUMP JUMPDEST PUSH1 0x0 DUP3 NOT DUP3 GT ISZERO PUSH2 0x2DC6 JUMPI PUSH2 0x2DC6 PUSH2 0x2E77 JUMP JUMPDEST POP ADD SWAP1 JUMP JUMPDEST PUSH1 0x0 PUSH5 0xFFFFFFFFFF DUP1 DUP4 AND DUP2 DUP6 AND DUP1 DUP4 SUB DUP3 GT ISZERO PUSH2 0x2DEB JUMPI PUSH2 0x2DEB PUSH2 0x2E77 JUMP JUMPDEST ADD SWAP5 SWAP4 POP POP POP POP JUMP JUMPDEST PUSH1 0x1 DUP2 DUP2 SHR SWAP1 DUP3 AND DUP1 PUSH2 0x2E08 JUMPI PUSH1 0x7F DUP3 AND SWAP2 POP JUMPDEST PUSH1 0x20 DUP3 LT DUP2 EQ ISZERO PUSH2 0x2E29 JUMPI PUSH4 0x4E487B71 PUSH1 0xE0 SHL PUSH1 0x0 MSTORE PUSH1 0x22 PUSH1 0x4 MSTORE PUSH1 0x24 PUSH1 0x0 REVERT JUMPDEST POP SWAP2 SWAP1 POP JUMP JUMPDEST PUSH1 0x1F DUP3 ADD PUSH1 0x1F NOT AND DUP2 ADD PUSH8 0xFFFFFFFFFFFFFFFF DUP2 GT DUP3 DUP3 LT OR ISZERO PUSH2 0x2E55 JUMPI PUSH2 0x2E55 PUSH2 0x2E8D JUMP JUMPDEST PUSH1 0x40 MSTORE POP POP JUMP JUMPDEST PUSH1 0x0 PUSH1 0x0 NOT DUP3 EQ ISZERO PUSH2 0x2E70 JUMPI PUSH2 0x2E70 PUSH2 0x2E77 JUMP JUMPDEST POP PUSH1 0x1 ADD SWAP1 JUMP JUMPDEST PUSH4 0x4E487B71 PUSH1 0xE0 SHL PUSH1 0x0 MSTORE PUSH1 0x11 PUSH1 0x4 MSTORE PUSH1 0x24 PUSH1 0x0 REVERT JUMPDEST PUSH4 0x4E487B71 PUSH1 0xE0 SHL PUSH1 0x0 MSTORE PUSH1 0x41 PUSH1 0x4 MSTORE PUSH1 0x24 PUSH1 0x0 REVERT JUMPDEST PUSH1 0x0 PUSH1 0x3 RETURNDATASIZE GT ISZERO PUSH2 0x2EB8 JUMPI PUSH1 0x4 DUP2 DUP3 RETURNDATACOPY MLOAD PUSH1 0xE0 SHR JUMPDEST SWAP1 JUMP JUMPDEST PUSH1 0x0 PUSH1 0x44 RETURNDATASIZE LT ISZERO PUSH2 0x2EC9 JUMPI SWAP1 JUMP JUMPDEST PUSH1 0x40 MLOAD PUSH1 0x3 NOT RETURNDATASIZE DUP2 ADD PUSH1 0x4 DUP4 RETURNDATACOPY DUP2 MLOAD RETURNDATASIZE PUSH8 0xFFFFFFFFFFFFFFFF DUP2 PUSH1 0x24 DUP5 ADD GT DUP2 DUP5 GT OR ISZERO PUSH2 0x2EF9 JUMPI POP POP POP POP POP SWAP1 JUMP JUMPDEST DUP3 DUP6 ADD SWAP2 POP DUP2 MLOAD DUP2 DUP2 GT ISZERO PUSH2 0x2F11 JUMPI POP POP POP POP POP POP SWAP1 JUMP JUMPDEST DUP5 RETURNDATASIZE DUP8 ADD ADD PUSH1 0x20 DUP3 DUP6 ADD ADD GT ISZERO PUSH2 0x2F2B JUMPI POP POP POP POP POP POP SWAP1 JUMP JUMPDEST PUSH2 0x2F3A PUSH1 0x20 DUP3 DUP7 ADD ADD DUP8 PUSH2 0x2E2F JUMP JUMPDEST POP SWAP1 SWAP6 SWAP5 POP POP POP POP POP JUMP JUMPDEST PUSH1 0x1 PUSH1 0x1 PUSH1 0xE0 SHL SUB NOT DUP2 AND DUP2 EQ PUSH2 0x1231 JUMPI PUSH1 0x0 DUP1 REVERT INVALID LOG2 PUSH5 0x6970667358 0x22 SLT KECCAK256 SWAP10 CREATE2 JUMPDEST PUSH28 0x84B8152B15CF86E18DB82027FDD9AF7F0A8B2075EF34F5C4E784DD78 PUSH5 0x736F6C6343 STOP ADDMOD DIV STOP CALLER ",
  "sha1": "de6bb9f31a506c246359b9ed443cb989f2e6b29b",
  "source": "// SPDX-License-Identifier: GPL-3.0-only\n\npragma solidity 0.8.4;\n\nimport \"@pwnfinance/contracts/MultiToken.sol\";\nimport \"@openzeppelin/contracts/access/Ownable.sol\";\nimport \"@openzeppelin/contracts/token/ERC1155/ERC1155.sol\";\n\ncontract PWNDeed is ERC1155, Ownable {\n\n    /*----------------------------------------------------------*|\n    |*  # VARIABLES & CONSTANTS DEFINITIONS                     *|\n    |*----------------------------------------------------------*/\n\n    address public PWN;                 // necessary msg.sender for all Deed related manipulations\n    uint256 public id;                  // simple DeedID counter\n    uint256 private nonce;              // server for offer hash generation\n\n    /**\n     * Construct defining a Deed\n     * @param status 0 == none/dead || 1 == new/open || 2 == running/accepted offer || 3 == paid back || 4 == expired\n     * @param borrower Address of the issuer / borrower - stays the same for entire lifespan of the token\n     * @param duration Loan duration in seconds\n     * @param expiration Unix timestamp (in seconds) setting up the default deadline\n     * @param collateral Consisting of another an `Asset` struct defined in the MultiToken library\n     * @param acceptedOffer Hash of the offer which will be bound to the deed\n     * @param pendingOffers List of offers made to the Deed\n     */\n    struct Deed {\n        uint8 status;\n        address borrower;\n        uint32 duration;\n        uint40 expiration;\n        MultiToken.Asset collateral;\n        bytes32 acceptedOffer;\n        bytes32[] pendingOffers;\n    }\n\n    /**\n     * Construct defining an offer\n     * @param did Deed ID the offer is bound to\n     * @param toBePaid Nn amount to be paid back (borrowed + interest)\n     * @param lender Address of the lender to be the loan withdrawn from\n     * @param loan Consisting of another an `Asset` struct defined in the MultiToken library\n     */\n    struct Offer {\n        uint256 did;\n        uint256 toBePaid;\n        address lender;\n        MultiToken.Asset loan;\n    }\n\n    mapping (uint256 => Deed) public deeds;             // mapping of all Deed data\n    mapping (bytes32 => Offer) public offers;           // mapping of all Offer data\n\n    /*----------------------------------------------------------*|\n    |*  # EVENTS & ERRORS DEFINITIONS                           *|\n    |*----------------------------------------------------------*/\n\n    event DeedCreated(address indexed assetAddress, MultiToken.Category category, uint256 id, uint256 amount, uint32 duration, uint256 indexed did);\n    event OfferMade(address assetAddress, uint256 amount, address indexed lender, uint256 toBePaid, uint256 indexed did, bytes32 offer);\n    event DeedRevoked(uint256 did);\n    event OfferRevoked(bytes32 offer);\n    event OfferAccepted(uint256 did, bytes32 offer);\n    event PaidBack(uint256 did, bytes32 offer);\n    event DeedClaimed(uint256 did);\n\n    /*----------------------------------------------------------*|\n    |*  # MODIFIERS                                             *|\n    |*----------------------------------------------------------*/\n\n    modifier onlyPWN() {\n        require(msg.sender == PWN, \"Caller is not the PWN\");\n        _;\n    }\n\n    /*----------------------------------------------------------*|\n    |*  # CONSTRUCTOR & FUNCTIONS                               *|\n    |*----------------------------------------------------------*/\n\n    /*\n     *  PWN Deed constructor\n     *  @dev Creates the PWN Deed token contract - ERC1155 with extra use case specific features\n     *  @dev Once the PWN contract is set, you'll have to call `this.setPWN(PWN.address)` for this contract to work\n     *  @param _uri Uri to be used for finding the token metadata (https://api.pwn.finance/deed/...)\n     */\n    constructor(string memory _uri) ERC1155(_uri) Ownable() {\n\n    }\n\n    /*\n     *   All contracts of this section can only be called by the PWN contract itself - once set via `setPWN(PWN.address)`\n     */\n\n    /**\n     * create\n     * @dev Creates the PWN Deed token contract - ERC1155 with extra use case specific features\n     * @param _assetAddress Address of the asset contract\n     * @param _assetCategory Category of the asset - see { MultiToken.sol }\n     * @param _duration Loan duration in seconds\n     * @param _assetId ID of an ERC721 or ERC1155 token || 0 in case the token doesn't have IDs\n     * @param _assetAmount Amount of an ERC20 or ERC1155 token || 0 in case of NFTs\n     * @param _owner Address initiating the new Deed\n     * @return Deed ID of the newly minted Deed\n     */\n    function create(\n        address _assetAddress,\n        MultiToken.Category _assetCategory,\n        uint32 _duration,\n        uint256 _assetId,\n        uint256 _assetAmount,\n        address _owner\n    ) external onlyPWN returns (uint256) {\n        id++;\n\n        Deed storage deed = deeds[id];\n        deed.duration = _duration;\n        deed.collateral.assetAddress = _assetAddress;\n        deed.collateral.category = _assetCategory;\n        deed.collateral.id = _assetId;\n        deed.collateral.amount = _assetAmount;\n\n        _mint(_owner, id, 1, \"\");\n\n        deed.status = 1;\n\n        emit DeedCreated(_assetAddress, _assetCategory, _assetId, _assetAmount, _duration, id);\n\n        return id;\n    }\n\n    /**\n     * revoke\n     * @dev Burns a deed token\n     * @param _did Deed ID of the token to be burned\n     * @param _owner Address of the borrower who issued the Deed\n     */\n    function revoke(\n        uint256 _did,\n        address _owner\n    ) external onlyPWN {\n        require(balanceOf(_owner, _did) == 1, \"The deed doesn't belong to the caller\");\n        require(getDeedStatus(_did) == 1, \"Deed can't be revoked at this stage\");\n\n        deeds[_did].status = 0;\n\n        emit DeedRevoked(_did);\n    }\n\n    /**\n     * makeOffer\n     * @dev saves an offer object that defines loan terms\n     * @dev only ERC20 tokens can be offered as loan\n     * @param _assetAddress Address of the asset contract\n     * @param _assetAmount Amount of an ERC20 token to be offered as loan\n     * @param _lender Address of the asset lender\n     * @param _did ID of the Deed the offer should be bound to\n     * @param _toBePaid Amount to be paid back by the borrower\n     * @return hash of the newly created offer\n     */\n    function makeOffer(\n        address _assetAddress,\n        uint256 _assetAmount,\n        address _lender,\n        uint256 _did,\n        uint256 _toBePaid\n    ) external onlyPWN returns (bytes32) {\n        require(getDeedStatus(_did) == 1, \"Deed not accepting offers\");\n\n        bytes32 hash = keccak256(abi.encodePacked(_lender, nonce));\n        nonce++;\n\n        Offer storage offer = offers[hash];\n        offer.loan.assetAddress = _assetAddress;\n        offer.loan.amount = _assetAmount;\n        offer.toBePaid = _toBePaid;\n        offer.lender = _lender;\n        offer.did = _did;\n\n        deeds[_did].pendingOffers.push(hash);\n\n        emit OfferMade(_assetAddress, _assetAmount, _lender, _toBePaid, _did, hash);\n\n        return hash;\n    }\n\n    /**\n     * revokeOffer\n     * @dev function to remove a pending offer\n     * @dev This only removes the offer representation but it doesn't remove the offer from a list of pending offers.\n     *         The offers associated with a deed has to be filtered on the front end to only list the valid ones.\n     *         No longer existent offers will simply return 0 if prompted about their DID.\n     * @param _offer Hash identifying an offer\n     * @param _lender Address of the lender who made the offer\n     * @dev TODO: consider ways to remove the offer from the pending offers array / maybe replace for a mapping\n     */\n    function revokeOffer(\n        bytes32 _offer,\n        address _lender\n    ) external onlyPWN {\n        require(offers[_offer].lender == _lender, \"This address didn't create the offer\");\n        require(getDeedStatus(offers[_offer].did) == 1, \"Can only remove offers from open Deeds\");\n\n        delete offers[_offer];\n\n        emit OfferRevoked(_offer);\n    }\n\n    /**\n     * acceptOffer\n     * @dev function to set accepted offer\n     * @param _did ID of the Deed the offer should be bound to\n     * @param _offer Hash identifying an offer\n     * @param _owner Address of the borrower who issued the Deed\n     */\n    function acceptOffer(\n        uint256 _did,\n        bytes32 _offer,\n        address _owner\n    ) external onlyPWN {\n        require(balanceOf(_owner, _did) == 1, \"The deed doesn't belong to the caller\");\n        require(getDeedStatus(_did) == 1, \"Deed can't accept more offers\");\n\n        Deed storage deed = deeds[_did];\n        deed.borrower = _owner;\n        deed.expiration = uint40(block.timestamp) + deed.duration;\n        deed.acceptedOffer = _offer;\n        delete deed.pendingOffers;\n        deed.status = 2;\n\n        emit OfferAccepted(_did, _offer);\n    }\n\n    /**\n     * repayLoan\n     * @dev function to make proper state transition\n     * @param _did ID of the Deed which is paid back\n     */\n    function repayLoan(uint256 _did) external onlyPWN {\n        require(getDeedStatus(_did) == 2, \"Deed doesn't have an accepted offer to be paid back\");\n\n        deeds[_did].status = 3;\n\n        emit PaidBack(_did, deeds[_did].acceptedOffer);\n    }\n\n    /**\n     * claim\n     * @dev function that would burn the deed token if the token is in paidBack or expired state\n     * @param _did ID of the Deed which is claimed\n     * @param _owner Address of the deed token owner\n     */\n    function claim(\n        uint256 _did,\n        address _owner\n    ) external onlyPWN {\n        require(balanceOf(_owner, _did) == 1, \"Caller is not the deed owner\");\n        require(getDeedStatus(_did) >= 3, \"Deed can't be claimed yet\");\n\n        deeds[_did].status = 0;\n\n        emit DeedClaimed(_did);\n    }\n\n    /**\n     * burn\n     * @dev function that would burn the deed token if the token is in dead state\n     * @param _did ID of the Deed which is burned\n     * @param _owner Address of the deed token owner\n     */\n    function burn(\n        uint256 _did,\n        address _owner\n    ) external onlyPWN {\n        require(balanceOf(_owner, _did) == 1, \"Caller is not the deed owner\");\n        require(deeds[_did].status == 0, \"Deed can't be burned at this stage\");\n\n        delete deeds[_did];\n        _burn(_owner, _did, 1);\n    }\n\n    /*----------------------------------------------------------*|\n    |*  ## VIEW FUNCTIONS                                       *|\n    |*----------------------------------------------------------*/\n\n    /*--------------------------------*|\n    |*  ## VIEW FUNCTIONS - DEEDS     *|\n    |*--------------------------------*/\n\n    /**\n     * getDeedStatus\n     * @dev used in contract calls & status checks and also in UI for elementary deed status categorization\n     * @param _did Deed ID checked for status\n     * @return a status number\n     */\n    function getDeedStatus(uint256 _did) public view returns (uint8) {\n        if (deeds[_did].expiration > 0 && deeds[_did].expiration < block.timestamp && deeds[_did].status != 3) {\n            return 4;\n        } else {\n            return deeds[_did].status;\n        }\n    }\n\n    /**\n     * getExpiration\n     * @dev utility function to find out exact expiration time of a particular Deed\n     * @dev for simple status check use `this.getDeedStatus(did)` if `status == 4` then Deed has expired\n     * @param _did Deed ID to be checked\n     * @return unix time stamp in seconds\n     */\n    function getExpiration(uint256 _did) public view returns (uint40) {\n        return deeds[_did].expiration;\n    }\n\n    /**\n     * getDuration\n     * @dev utility function to find out loan duration period of a particular Deed\n     * @param _did Deed ID to be checked\n     * @return loan duration period in seconds\n     */\n    function getDuration(uint256 _did) public view returns (uint32) {\n        return deeds[_did].duration;\n    }\n\n    /**\n     * getBorrower\n     * @dev utility function to find out a borrower address of a particular Deed\n     * @param _did Deed ID to be checked\n     * @return address of the borrower\n     */\n    function getBorrower(uint256 _did) public view returns (address) {\n        return deeds[_did].borrower;\n    }\n\n    /**\n     * getDeedCollateral\n     * @dev utility function to find out collateral asset of a particular Deed\n     * @param _did Deed ID to be checked\n     * @return Asset construct - for definition see { MultiToken.sol }\n     */\n    function getDeedCollateral(uint256 _did) public view returns (MultiToken.Asset memory) {\n        return deeds[_did].collateral;\n    }\n\n    /**\n     * getOffers\n     * @dev utility function to get a list of all pending offers of a Deed\n     * @param _did Deed ID to be checked\n     * @return a list of offer hashes\n     */\n    function getOffers(uint256 _did) public view returns (bytes32[] memory) {\n        return deeds[_did].pendingOffers;\n    }\n\n    /**\n     * getAcceptedOffer\n     * @dev used to get a list of made offers to be queried in the UI - needs additional check for re-validating each offer\n     * @dev revalidation requires checking if the lender has sufficient balance and approved the asset\n     * @param _did Deed ID being queried for offers\n     * @return Hash of the accepted offer\n     */\n    function getAcceptedOffer(uint256 _did) public view returns (bytes32) {\n        return deeds[_did].acceptedOffer;\n    }\n\n    /*--------------------------------*|\n    |*  ## VIEW FUNCTIONS - OFFERS    *|\n    |*--------------------------------*/\n\n    /**\n     * getDeedID\n     * @dev utility function to find out which Deed is an offer associated with\n     * @param _offer Offer hash of an offer to be prompted\n     * @return Deed ID\n     */\n    function getDeedID(bytes32 _offer) public view returns (uint256) {\n        return offers[_offer].did;\n    }\n\n    /**\n     * getOfferLoan\n     * @dev utility function that returns the loan asset of a particular offer\n     * @param _offer Offer hash of an offer to be prompted\n     * @return Asset construct - for definition see { MultiToken.sol }\n     */\n    function getOfferLoan(bytes32 _offer) public view returns (MultiToken.Asset memory) {\n        return offers[_offer].loan;\n    }\n\n    /**\n     * toBePaid\n     * @dev quick query of the total amount to be paid to an offer\n     * @param _offer Offer hash of an offer to be prompted\n     * @return Amount to be paid back\n     */\n    function toBePaid(bytes32 _offer) public view returns (uint256) {\n        return offers[_offer].toBePaid;\n    }\n\n    /**\n     * getLender\n     * @dev utility function to find out a lender address of a particular offer\n     * @param _offer Offer hash of an offer to be prompted\n     * @return Address of the lender\n     */\n    function getLender(bytes32 _offer) public view returns (address) {\n        return offers[_offer].lender;\n    }\n\n    /*--------------------------------*|\n    |*  ## SETUP FUNCTIONS            *|\n    |*--------------------------------*/\n\n    /**\n     * setPWN\n     * @dev An essential setup function. Has to be called once PWN contract was deployed\n     * @param _address Identifying the PWN contract\n     */\n    function setPWN(address _address) external onlyOwner {\n        PWN = _address;\n    }\n\n    /**\n     * setUri\n     * @dev An non-essential setup function. Can be called to adjust the Deed token metadata URI\n     * @param _newUri setting the new origin of Deed metadata\n     */\n    function setUri(string memory _newUri) external onlyOwner {\n        _setURI(_newUri);\n    }\n}",
  "sourcePath": "contracts/PWNDeed.sol",
  "type": "contract"
}